{
  "_format": "hh-sol-artifact-1",
  "contractName": "ERC721A",
  "sourceName": "contracts/ERC721A.sol",
  "abi": [
    {
      "inputs": [
        {
          "internalType": "string",
          "name": "name_",
          "type": "string"
        },
        {
          "internalType": "string",
          "name": "symbol_",
          "type": "string"
        },
        {
          "internalType": "uint256",
          "name": "maxBatchSize_",
          "type": "uint256"
        },
        {
          "internalType": "uint256",
          "name": "collectionSize_",
          "type": "uint256"
        }
      ],
      "stateMutability": "nonpayable",
      "type": "constructor"
    },
    {
      "anonymous": false,
      "inputs": [
        {
          "indexed": true,
          "internalType": "address",
          "name": "owner",
          "type": "address"
        },
        {
          "indexed": true,
          "internalType": "address",
          "name": "approved",
          "type": "address"
        },
        {
          "indexed": true,
          "internalType": "uint256",
          "name": "tokenId",
          "type": "uint256"
        }
      ],
      "name": "Approval",
      "type": "event"
    },
    {
      "anonymous": false,
      "inputs": [
        {
          "indexed": true,
          "internalType": "address",
          "name": "owner",
          "type": "address"
        },
        {
          "indexed": true,
          "internalType": "address",
          "name": "operator",
          "type": "address"
        },
        {
          "indexed": false,
          "internalType": "bool",
          "name": "approved",
          "type": "bool"
        }
      ],
      "name": "ApprovalForAll",
      "type": "event"
    },
    {
      "anonymous": false,
      "inputs": [
        {
          "indexed": true,
          "internalType": "address",
          "name": "from",
          "type": "address"
        },
        {
          "indexed": true,
          "internalType": "address",
          "name": "to",
          "type": "address"
        },
        {
          "indexed": true,
          "internalType": "uint256",
          "name": "tokenId",
          "type": "uint256"
        }
      ],
      "name": "Transfer",
      "type": "event"
    },
    {
      "inputs": [
        {
          "internalType": "address",
          "name": "to",
          "type": "address"
        },
        {
          "internalType": "uint256",
          "name": "tokenId",
          "type": "uint256"
        }
      ],
      "name": "approve",
      "outputs": [],
      "stateMutability": "nonpayable",
      "type": "function"
    },
    {
      "inputs": [
        {
          "internalType": "address",
          "name": "owner",
          "type": "address"
        }
      ],
      "name": "balanceOf",
      "outputs": [
        {
          "internalType": "uint256",
          "name": "",
          "type": "uint256"
        }
      ],
      "stateMutability": "view",
      "type": "function"
    },
    {
      "inputs": [
        {
          "internalType": "uint256",
          "name": "tokenId",
          "type": "uint256"
        }
      ],
      "name": "getApproved",
      "outputs": [
        {
          "internalType": "address",
          "name": "",
          "type": "address"
        }
      ],
      "stateMutability": "view",
      "type": "function"
    },
    {
      "inputs": [
        {
          "internalType": "address",
          "name": "owner",
          "type": "address"
        },
        {
          "internalType": "address",
          "name": "operator",
          "type": "address"
        }
      ],
      "name": "isApprovedForAll",
      "outputs": [
        {
          "internalType": "bool",
          "name": "",
          "type": "bool"
        }
      ],
      "stateMutability": "view",
      "type": "function"
    },
    {
      "inputs": [],
      "name": "name",
      "outputs": [
        {
          "internalType": "string",
          "name": "",
          "type": "string"
        }
      ],
      "stateMutability": "view",
      "type": "function"
    },
    {
      "inputs": [],
      "name": "nextOwnerToExplicitlySet",
      "outputs": [
        {
          "internalType": "uint256",
          "name": "",
          "type": "uint256"
        }
      ],
      "stateMutability": "view",
      "type": "function"
    },
    {
      "inputs": [
        {
          "internalType": "uint256",
          "name": "tokenId",
          "type": "uint256"
        }
      ],
      "name": "ownerOf",
      "outputs": [
        {
          "internalType": "address",
          "name": "",
          "type": "address"
        }
      ],
      "stateMutability": "view",
      "type": "function"
    },
    {
      "inputs": [
        {
          "internalType": "address",
          "name": "from",
          "type": "address"
        },
        {
          "internalType": "address",
          "name": "to",
          "type": "address"
        },
        {
          "internalType": "uint256",
          "name": "tokenId",
          "type": "uint256"
        }
      ],
      "name": "safeTransferFrom",
      "outputs": [],
      "stateMutability": "nonpayable",
      "type": "function"
    },
    {
      "inputs": [
        {
          "internalType": "address",
          "name": "from",
          "type": "address"
        },
        {
          "internalType": "address",
          "name": "to",
          "type": "address"
        },
        {
          "internalType": "uint256",
          "name": "tokenId",
          "type": "uint256"
        },
        {
          "internalType": "bytes",
          "name": "_data",
          "type": "bytes"
        }
      ],
      "name": "safeTransferFrom",
      "outputs": [],
      "stateMutability": "nonpayable",
      "type": "function"
    },
    {
      "inputs": [
        {
          "internalType": "address",
          "name": "operator",
          "type": "address"
        },
        {
          "internalType": "bool",
          "name": "approved",
          "type": "bool"
        }
      ],
      "name": "setApprovalForAll",
      "outputs": [],
      "stateMutability": "nonpayable",
      "type": "function"
    },
    {
      "inputs": [
        {
          "internalType": "bytes4",
          "name": "interfaceId",
          "type": "bytes4"
        }
      ],
      "name": "supportsInterface",
      "outputs": [
        {
          "internalType": "bool",
          "name": "",
          "type": "bool"
        }
      ],
      "stateMutability": "view",
      "type": "function"
    },
    {
      "inputs": [],
      "name": "symbol",
      "outputs": [
        {
          "internalType": "string",
          "name": "",
          "type": "string"
        }
      ],
      "stateMutability": "view",
      "type": "function"
    },
    {
      "inputs": [
        {
          "internalType": "uint256",
          "name": "index",
          "type": "uint256"
        }
      ],
      "name": "tokenByIndex",
      "outputs": [
        {
          "internalType": "uint256",
          "name": "",
          "type": "uint256"
        }
      ],
      "stateMutability": "view",
      "type": "function"
    },
    {
      "inputs": [
        {
          "internalType": "address",
          "name": "owner",
          "type": "address"
        },
        {
          "internalType": "uint256",
          "name": "index",
          "type": "uint256"
        }
      ],
      "name": "tokenOfOwnerByIndex",
      "outputs": [
        {
          "internalType": "uint256",
          "name": "",
          "type": "uint256"
        }
      ],
      "stateMutability": "view",
      "type": "function"
    },
    {
      "inputs": [
        {
          "internalType": "uint256",
          "name": "tokenId",
          "type": "uint256"
        }
      ],
      "name": "tokenURI",
      "outputs": [
        {
          "internalType": "string",
          "name": "",
          "type": "string"
        }
      ],
      "stateMutability": "view",
      "type": "function"
    },
    {
      "inputs": [],
      "name": "totalSupply",
      "outputs": [
        {
          "internalType": "uint256",
          "name": "",
          "type": "uint256"
        }
      ],
      "stateMutability": "view",
      "type": "function"
    },
    {
      "inputs": [
        {
          "internalType": "address",
          "name": "from",
          "type": "address"
        },
        {
          "internalType": "address",
          "name": "to",
          "type": "address"
        },
        {
          "internalType": "uint256",
          "name": "tokenId",
          "type": "uint256"
        }
      ],
      "name": "transferFrom",
      "outputs": [],
      "stateMutability": "nonpayable",
      "type": "function"
    }
  ],
  "bytecode": "0x60c06040526000805560006007553480156200001a57600080fd5b5060405162001c8538038062001c858339810160408190526200003d9162000201565b60008111620000aa5760405162461bcd60e51b815260206004820152602e60248201527f455243373231413a20636f6c6c656374696f6e206d757374206861766520612060448201526d6e6f6e7a65726f20737570706c7960901b60648201526084015b60405180910390fd5b600082116200010c5760405162461bcd60e51b815260206004820152602760248201527f455243373231413a206d61782062617463682073697a65206d757374206265206044820152666e6f6e7a65726f60c81b6064820152608401620000a1565b60016200011a85826200030a565b5060026200012984826200030a565b5060a09190915260805250620003d69050565b634e487b7160e01b600052604160045260246000fd5b600082601f8301126200016457600080fd5b81516001600160401b03808211156200018157620001816200013c565b604051601f8301601f19908116603f01168101908282118183101715620001ac57620001ac6200013c565b81604052838152602092508683858801011115620001c957600080fd5b600091505b83821015620001ed5785820183015181830184015290820190620001ce565b600093810190920192909252949350505050565b600080600080608085870312156200021857600080fd5b84516001600160401b03808211156200023057600080fd5b6200023e8883890162000152565b955060208701519150808211156200025557600080fd5b50620002648782880162000152565b604087015160609097015195989097509350505050565b600181811c908216806200029057607f821691505b602082108103620002b157634e487b7160e01b600052602260045260246000fd5b50919050565b601f8211156200030557600081815260208120601f850160051c81016020861015620002e05750805b601f850160051c820191505b818110156200030157828155600101620002ec565b5050505b505050565b81516001600160401b038111156200032657620003266200013c565b6200033e816200033784546200027b565b84620002b7565b602080601f8311600181146200037657600084156200035d5750858301515b600019600386901b1c1916600185901b17855562000301565b600085815260208120601f198616915b82811015620003a75788860151825594840194600190910190840162000386565b5085821015620003c65787850151600019600388901b60f8161c191681555b5050505050600190811b01905550565b60805160a0516118856200040060003960008181611001015261102b0152600050506118856000f3fe608060405234801561001057600080fd5b506004361061011b5760003560e01c80634f6ccce7116100b2578063a22cb46511610081578063c87b56dd11610066578063c87b56dd1461024f578063d7224ba014610262578063e985e9c51461026b57600080fd5b8063a22cb46514610229578063b88d4fde1461023c57600080fd5b80634f6ccce7146101e85780636352211e146101fb57806370a082311461020e57806395d89b411461022157600080fd5b806318160ddd116100ee57806318160ddd1461019d57806323b872dd146101af5780632f745c59146101c257806342842e0e146101d557600080fd5b806301ffc9a71461012057806306fdde0314610148578063081812fc1461015d578063095ea7b314610188575b600080fd5b61013361012e3660046113dd565b6102a7565b60405190151581526020015b60405180910390f35b610150610378565b60405161013f919061144a565b61017061016b36600461145d565b61040a565b6040516001600160a01b03909116815260200161013f565b61019b610196366004611492565b6104aa565b005b6000545b60405190815260200161013f565b61019b6101bd3660046114bc565b6105dc565b6101a16101d0366004611492565b6105e7565b61019b6101e33660046114bc565b61077d565b6101a16101f636600461145d565b610798565b61017061020936600461145d565b610814565b6101a161021c3660046114f8565b610826565b6101506108d2565b61019b610237366004611513565b6108e1565b61019b61024a366004611565565b6109a5565b61015061025d36600461145d565b610a34565b6101a160075481565b610133610279366004611641565b6001600160a01b03918216600090815260066020908152604080832093909416825291909152205460ff1690565b60006001600160e01b031982167f80ac58cd00000000000000000000000000000000000000000000000000000000148061030a57506001600160e01b031982167f5b5e139f00000000000000000000000000000000000000000000000000000000145b8061033e57506001600160e01b031982167f780e9d6300000000000000000000000000000000000000000000000000000000145b8061037257507f01ffc9a7000000000000000000000000000000000000000000000000000000006001600160e01b03198316145b92915050565b60606001805461038790611674565b80601f01602080910402602001604051908101604052809291908181526020018280546103b390611674565b80156104005780601f106103d557610100808354040283529160200191610400565b820191906000526020600020905b8154815290600101906020018083116103e357829003601f168201915b5050505050905090565b6000610417826000541190565b61048e5760405162461bcd60e51b815260206004820152602d60248201527f455243373231413a20617070726f76656420717565727920666f72206e6f6e6560448201527f78697374656e7420746f6b656e0000000000000000000000000000000000000060648201526084015b60405180910390fd5b506000908152600560205260409020546001600160a01b031690565b60006104b582610814565b9050806001600160a01b0316836001600160a01b03160361053e5760405162461bcd60e51b815260206004820152602260248201527f455243373231413a20617070726f76616c20746f2063757272656e74206f776e60448201527f65720000000000000000000000000000000000000000000000000000000000006064820152608401610485565b336001600160a01b038216148061055a575061055a8133610279565b6105cc5760405162461bcd60e51b815260206004820152603960248201527f455243373231413a20617070726f76652063616c6c6572206973206e6f74206f60448201527f776e6572206e6f7220617070726f76656420666f7220616c6c000000000000006064820152608401610485565b6105d7838383610b1c565b505050565b6105d7838383610b90565b60006105f283610826565b82106106665760405162461bcd60e51b815260206004820152602260248201527f455243373231413a206f776e657220696e646578206f7574206f6620626f756e60448201527f64730000000000000000000000000000000000000000000000000000000000006064820152608401610485565b600080549080805b8381101561070e576000818152600360209081526040918290208251808401909352546001600160a01b038116808452600160a01b90910467ffffffffffffffff1691830191909152156106c157805192505b876001600160a01b0316836001600160a01b0316036106fb578684036106ed5750935061037292505050565b836106f7816116c4565b9450505b5080610706816116c4565b91505061066e565b5060405162461bcd60e51b815260206004820152602e60248201527f455243373231413a20756e61626c6520746f2067657420746f6b656e206f662060448201527f6f776e657220627920696e6465780000000000000000000000000000000000006064820152608401610485565b6105d7838383604051806020016040528060008152506109a5565b6000805482106108105760405162461bcd60e51b815260206004820152602360248201527f455243373231413a20676c6f62616c20696e646578206f7574206f6620626f7560448201527f6e647300000000000000000000000000000000000000000000000000000000006064820152608401610485565b5090565b600061081f82610f6c565b5192915050565b60006001600160a01b0382166108a45760405162461bcd60e51b815260206004820152602b60248201527f455243373231413a2062616c616e636520717565727920666f7220746865207a60448201527f65726f20616464726573730000000000000000000000000000000000000000006064820152608401610485565b506001600160a01b03166000908152600460205260409020546fffffffffffffffffffffffffffffffff1690565b60606002805461038790611674565b336001600160a01b038316036109395760405162461bcd60e51b815260206004820152601a60248201527f455243373231413a20617070726f766520746f2063616c6c65720000000000006044820152606401610485565b3360008181526006602090815260408083206001600160a01b03871680855290835292819020805460ff191686151590811790915590519081529192917f17307eab39ab6107e8899845ad3d59bd9653f200f220920489ca2b5937696c31910160405180910390a35050565b6109b0848484610b90565b6109bc84848484611137565b610a2e5760405162461bcd60e51b815260206004820152603360248201527f455243373231413a207472616e7366657220746f206e6f6e204552433732315260448201527f6563656976657220696d706c656d656e746572000000000000000000000000006064820152608401610485565b50505050565b6060610a41826000541190565b610ab35760405162461bcd60e51b815260206004820152602f60248201527f4552433732314d657461646174613a2055524920717565727920666f72206e6f60448201527f6e6578697374656e7420746f6b656e00000000000000000000000000000000006064820152608401610485565b6000610aca60408051602081019091526000815290565b90506000815111610aea5760405180602001604052806000815250610b15565b80610af48461128f565b604051602001610b059291906116dd565b6040516020818303038152906040525b9392505050565b60008281526005602052604080822080547fffffffffffffffffffffffff0000000000000000000000000000000000000000166001600160a01b0387811691821790925591518593918516917f8c5be1e5ebec7d5bd14f71427d1e84f3dd0314c0f7b2291e5b200ac8c7c3b92591a4505050565b6000610b9b82610f6c565b80519091506000906001600160a01b0316336001600160a01b03161480610bd2575033610bc78461040a565b6001600160a01b0316145b80610be457508151610be49033610279565b905080610c595760405162461bcd60e51b815260206004820152603260248201527f455243373231413a207472616e736665722063616c6c6572206973206e6f742060448201527f6f776e6572206e6f7220617070726f76656400000000000000000000000000006064820152608401610485565b846001600160a01b031682600001516001600160a01b031614610ce45760405162461bcd60e51b815260206004820152602660248201527f455243373231413a207472616e736665722066726f6d20696e636f727265637460448201527f206f776e657200000000000000000000000000000000000000000000000000006064820152608401610485565b6001600160a01b038416610d605760405162461bcd60e51b815260206004820152602560248201527f455243373231413a207472616e7366657220746f20746865207a65726f20616460448201527f64726573730000000000000000000000000000000000000000000000000000006064820152608401610485565b610d706000848460000151610b1c565b6001600160a01b0385166000908152600460205260408120805460019290610dab9084906fffffffffffffffffffffffffffffffff1661170c565b82546101009290920a6fffffffffffffffffffffffffffffffff8181021990931691831602179091556001600160a01b03861660009081526004602052604081208054600194509092610e009185911661173c565b82546fffffffffffffffffffffffffffffffff9182166101009390930a9283029190920219909116179055506040805180820182526001600160a01b03808716825267ffffffffffffffff428116602080850191825260008981526003909152948520935184549151909216600160a01b026001600160e01b03199091169190921617179055610e91846001611765565b6000818152600360205260409020549091506001600160a01b0316610f2357610ebb816000541190565b15610f235760408051808201825284516001600160a01b03908116825260208087015167ffffffffffffffff9081168285019081526000878152600390935294909120925183549451909116600160a01b026001600160e01b03199094169116179190911790555b83856001600160a01b0316876001600160a01b03167fddf252ad1be2c89b69c2b068fc378daa952ba7f163c4a11628f55a4df523b3ef60405160405180910390a4505050505050565b6040805180820190915260008082526020820152610f8b826000541190565b610ffd5760405162461bcd60e51b815260206004820152602a60248201527f455243373231413a206f776e657220717565727920666f72206e6f6e6578697360448201527f74656e7420746f6b656e000000000000000000000000000000000000000000006064820152608401610485565b60007f0000000000000000000000000000000000000000000000000000000000000000831061105e576110507f000000000000000000000000000000000000000000000000000000000000000084611778565b61105b906001611765565b90505b825b8181106110c8576000818152600360209081526040918290208251808401909352546001600160a01b038116808452600160a01b90910467ffffffffffffffff1691830191909152156110b557949350505050565b50806110c08161178b565b915050611060565b5060405162461bcd60e51b815260206004820152602f60248201527f455243373231413a20756e61626c6520746f2064657465726d696e652074686560448201527f206f776e6572206f6620746f6b656e00000000000000000000000000000000006064820152608401610485565b60006001600160a01b0384163b1561128357604051630a85bd0160e11b81526001600160a01b0385169063150b7a029061117b9033908990889088906004016117a2565b6020604051808303816000875af19250505080156111b6575060408051601f3d908101601f191682019092526111b3918101906117de565b60015b611269573d8080156111e4576040519150601f19603f3d011682016040523d82523d6000602084013e6111e9565b606091505b5080516000036112615760405162461bcd60e51b815260206004820152603360248201527f455243373231413a207472616e7366657220746f206e6f6e204552433732315260448201527f6563656976657220696d706c656d656e746572000000000000000000000000006064820152608401610485565b805181602001fd5b6001600160e01b031916630a85bd0160e11b149050611287565b5060015b949350505050565b6060816000036112d257505060408051808201909152600181527f3000000000000000000000000000000000000000000000000000000000000000602082015290565b8160005b81156112fc57806112e6816116c4565b91506112f59050600a83611811565b91506112d6565b60008167ffffffffffffffff8111156113175761131761154f565b6040519080825280601f01601f191660200182016040528015611341576020820181803683370190505b5090505b841561128757611356600183611778565b9150611363600a86611825565b61136e906030611765565b60f81b81838151811061138357611383611839565b60200101907effffffffffffffffffffffffffffffffffffffffffffffffffffffffffffff1916908160001a9053506113bd600a86611811565b9450611345565b6001600160e01b0319811681146113da57600080fd5b50565b6000602082840312156113ef57600080fd5b8135610b15816113c4565b60005b838110156114155781810151838201526020016113fd565b50506000910152565b600081518084526114368160208601602086016113fa565b601f01601f19169290920160200192915050565b602081526000610b15602083018461141e565b60006020828403121561146f57600080fd5b5035919050565b80356001600160a01b038116811461148d57600080fd5b919050565b600080604083850312156114a557600080fd5b6114ae83611476565b946020939093013593505050565b6000806000606084860312156114d157600080fd5b6114da84611476565b92506114e860208501611476565b9150604084013590509250925092565b60006020828403121561150a57600080fd5b610b1582611476565b6000806040838503121561152657600080fd5b61152f83611476565b91506020830135801515811461154457600080fd5b809150509250929050565b634e487b7160e01b600052604160045260246000fd5b6000806000806080858703121561157b57600080fd5b61158485611476565b935061159260208601611476565b925060408501359150606085013567ffffffffffffffff808211156115b657600080fd5b818701915087601f8301126115ca57600080fd5b8135818111156115dc576115dc61154f565b604051601f8201601f19908116603f011681019083821181831017156116045761160461154f565b816040528281528a602084870101111561161d57600080fd5b82602086016020830137600060208483010152809550505050505092959194509250565b6000806040838503121561165457600080fd5b61165d83611476565b915061166b60208401611476565b90509250929050565b600181811c9082168061168857607f821691505b6020821081036116a857634e487b7160e01b600052602260045260246000fd5b50919050565b634e487b7160e01b600052601160045260246000fd5b6000600182016116d6576116d66116ae565b5060010190565b600083516116ef8184602088016113fa565b8351908301906117038183602088016113fa565b01949350505050565b6fffffffffffffffffffffffffffffffff828116828216039080821115611735576117356116ae565b5092915050565b6fffffffffffffffffffffffffffffffff818116838216019080821115611735576117356116ae565b80820180821115610372576103726116ae565b81810381811115610372576103726116ae565b60008161179a5761179a6116ae565b506000190190565b60006001600160a01b038087168352808616602084015250836040830152608060608301526117d4608083018461141e565b9695505050505050565b6000602082840312156117f057600080fd5b8151610b15816113c4565b634e487b7160e01b600052601260045260246000fd5b600082611820576118206117fb565b500490565b600082611834576118346117fb565b500690565b634e487b7160e01b600052603260045260246000fdfea2646970667358221220e2c474fbccfb40a1b429ece5c2e8c1dff17a82cee2b97a519fbd76765bf81f5664736f6c63430008110033",
  "linkReferences": {},
  "deployedLinkReferences": {}
}