{
  "_format": "hh-sol-artifact-1",
  "contractName": "Auth",
  "sourceName": "contracts/access-control/Auth.sol",
  "abi": [
    {
      "inputs": [
        {
          "internalType": "address",
          "name": "deployer",
          "type": "address"
        }
      ],
      "stateMutability": "nonpayable",
      "type": "constructor"
    },
    {
      "inputs": [
        {
          "internalType": "address",
          "name": "user",
          "type": "address"
        }
      ],
      "name": "isAdministrator",
      "outputs": [
        {
          "internalType": "bool",
          "name": "",
          "type": "bool"
        }
      ],
      "stateMutability": "view",
      "type": "function"
    }
  ],
  "bytecode": "0x608060405234801561001057600080fd5b5060405161017038038061017083398101604081905261002f91610054565b600080546001600160a01b0319166001600160a01b0392909216919091179055610084565b60006020828403121561006657600080fd5b81516001600160a01b038116811461007d57600080fd5b9392505050565b60de806100926000396000f3fe6080604052348015600f57600080fd5b506004361060285760003560e01c80630a2eb30114602d575b600080fd5b60596038366004606d565b60005473ffffffffffffffffffffffffffffffffffffffff91821691161490565b604051901515815260200160405180910390f35b600060208284031215607e57600080fd5b813573ffffffffffffffffffffffffffffffffffffffff8116811460a157600080fd5b939250505056fea26469706673582212207a359ecccb1327b1163c2933afb33558d4b5908cb191bbef555623619529020e64736f6c63430008110033",
  "linkReferences": {},
  "deployedLinkReferences": {}
}