{
  "_format": "hh-sol-artifact-1",
  "contractName": "OG",
  "sourceName": "contracts/OG.sol",
  "abi": [
    {
      "inputs": [
        {
          "internalType": "string",
          "name": "_theBaseURI",
          "type": "string"
        },
        {
          "internalType": "string",
          "name": "_notRevealedURI",
          "type": "string"
        }
      ],
      "stateMutability": "nonpayable",
      "type": "constructor"
    },
    {
      "anonymous": false,
      "inputs": [
        {
          "indexed": true,
          "internalType": "address",
          "name": "owner",
          "type": "address"
        },
        {
          "indexed": true,
          "internalType": "address",
          "name": "approved",
          "type": "address"
        },
        {
          "indexed": true,
          "internalType": "uint256",
          "name": "tokenId",
          "type": "uint256"
        }
      ],
      "name": "Approval",
      "type": "event"
    },
    {
      "anonymous": false,
      "inputs": [
        {
          "indexed": true,
          "internalType": "address",
          "name": "owner",
          "type": "address"
        },
        {
          "indexed": true,
          "internalType": "address",
          "name": "operator",
          "type": "address"
        },
        {
          "indexed": false,
          "internalType": "bool",
          "name": "approved",
          "type": "bool"
        }
      ],
      "name": "ApprovalForAll",
      "type": "event"
    },
    {
      "anonymous": false,
      "inputs": [
        {
          "indexed": true,
          "internalType": "contract IERC20",
          "name": "token",
          "type": "address"
        },
        {
          "indexed": false,
          "internalType": "address",
          "name": "to",
          "type": "address"
        },
        {
          "indexed": false,
          "internalType": "uint256",
          "name": "amount",
          "type": "uint256"
        }
      ],
      "name": "ERC20PaymentReleased",
      "type": "event"
    },
    {
      "anonymous": false,
      "inputs": [
        {
          "indexed": true,
          "internalType": "address",
          "name": "previousOwner",
          "type": "address"
        },
        {
          "indexed": true,
          "internalType": "address",
          "name": "newOwner",
          "type": "address"
        }
      ],
      "name": "OwnershipTransferred",
      "type": "event"
    },
    {
      "anonymous": false,
      "inputs": [
        {
          "indexed": false,
          "internalType": "address",
          "name": "account",
          "type": "address"
        },
        {
          "indexed": false,
          "internalType": "uint256",
          "name": "shares",
          "type": "uint256"
        }
      ],
      "name": "PayeeAdded",
      "type": "event"
    },
    {
      "anonymous": false,
      "inputs": [
        {
          "indexed": false,
          "internalType": "address",
          "name": "from",
          "type": "address"
        },
        {
          "indexed": false,
          "internalType": "uint256",
          "name": "amount",
          "type": "uint256"
        }
      ],
      "name": "PaymentReceived",
      "type": "event"
    },
    {
      "anonymous": false,
      "inputs": [
        {
          "indexed": false,
          "internalType": "address",
          "name": "to",
          "type": "address"
        },
        {
          "indexed": false,
          "internalType": "uint256",
          "name": "amount",
          "type": "uint256"
        }
      ],
      "name": "PaymentReleased",
      "type": "event"
    },
    {
      "anonymous": false,
      "inputs": [
        {
          "indexed": true,
          "internalType": "address",
          "name": "from",
          "type": "address"
        },
        {
          "indexed": true,
          "internalType": "address",
          "name": "to",
          "type": "address"
        },
        {
          "indexed": true,
          "internalType": "uint256",
          "name": "tokenId",
          "type": "uint256"
        }
      ],
      "name": "Transfer",
      "type": "event"
    },
    {
      "inputs": [],
      "name": "MAX_SUPPLY",
      "outputs": [
        {
          "internalType": "uint256",
          "name": "",
          "type": "uint256"
        }
      ],
      "stateMutability": "view",
      "type": "function"
    },
    {
      "inputs": [
        {
          "internalType": "address",
          "name": "to",
          "type": "address"
        },
        {
          "internalType": "uint256",
          "name": "tokenId",
          "type": "uint256"
        }
      ],
      "name": "approve",
      "outputs": [],
      "stateMutability": "nonpayable",
      "type": "function"
    },
    {
      "inputs": [
        {
          "internalType": "address",
          "name": "owner",
          "type": "address"
        }
      ],
      "name": "balanceOf",
      "outputs": [
        {
          "internalType": "uint256",
          "name": "",
          "type": "uint256"
        }
      ],
      "stateMutability": "view",
      "type": "function"
    },
    {
      "inputs": [],
      "name": "baseURI",
      "outputs": [
        {
          "internalType": "string",
          "name": "",
          "type": "string"
        }
      ],
      "stateMutability": "view",
      "type": "function"
    },
    {
      "inputs": [
        {
          "internalType": "address",
          "name": "_account",
          "type": "address"
        },
        {
          "internalType": "uint256",
          "name": "_ammount",
          "type": "uint256"
        }
      ],
      "name": "freeMint",
      "outputs": [],
      "stateMutability": "nonpayable",
      "type": "function"
    },
    {
      "inputs": [
        {
          "internalType": "uint256",
          "name": "tokenId",
          "type": "uint256"
        }
      ],
      "name": "getApproved",
      "outputs": [
        {
          "internalType": "address",
          "name": "",
          "type": "address"
        }
      ],
      "stateMutability": "view",
      "type": "function"
    },
    {
      "inputs": [
        {
          "internalType": "address",
          "name": "_account",
          "type": "address"
        }
      ],
      "name": "gift",
      "outputs": [],
      "stateMutability": "nonpayable",
      "type": "function"
    },
    {
      "inputs": [
        {
          "internalType": "address",
          "name": "owner",
          "type": "address"
        },
        {
          "internalType": "address",
          "name": "operator",
          "type": "address"
        }
      ],
      "name": "isApprovedForAll",
      "outputs": [
        {
          "internalType": "bool",
          "name": "",
          "type": "bool"
        }
      ],
      "stateMutability": "view",
      "type": "function"
    },
    {
      "inputs": [],
      "name": "name",
      "outputs": [
        {
          "internalType": "string",
          "name": "",
          "type": "string"
        }
      ],
      "stateMutability": "view",
      "type": "function"
    },
    {
      "inputs": [],
      "name": "notRevealedURI",
      "outputs": [
        {
          "internalType": "string",
          "name": "",
          "type": "string"
        }
      ],
      "stateMutability": "view",
      "type": "function"
    },
    {
      "inputs": [],
      "name": "owner",
      "outputs": [
        {
          "internalType": "address",
          "name": "",
          "type": "address"
        }
      ],
      "stateMutability": "view",
      "type": "function"
    },
    {
      "inputs": [
        {
          "internalType": "uint256",
          "name": "tokenId",
          "type": "uint256"
        }
      ],
      "name": "ownerOf",
      "outputs": [
        {
          "internalType": "address",
          "name": "",
          "type": "address"
        }
      ],
      "stateMutability": "view",
      "type": "function"
    },
    {
      "inputs": [
        {
          "internalType": "uint256",
          "name": "index",
          "type": "uint256"
        }
      ],
      "name": "payee",
      "outputs": [
        {
          "internalType": "address",
          "name": "",
          "type": "address"
        }
      ],
      "stateMutability": "view",
      "type": "function"
    },
    {
      "inputs": [],
      "name": "priceSale",
      "outputs": [
        {
          "internalType": "uint256",
          "name": "",
          "type": "uint256"
        }
      ],
      "stateMutability": "view",
      "type": "function"
    },
    {
      "inputs": [
        {
          "internalType": "address",
          "name": "account",
          "type": "address"
        }
      ],
      "name": "releasable",
      "outputs": [
        {
          "internalType": "uint256",
          "name": "",
          "type": "uint256"
        }
      ],
      "stateMutability": "view",
      "type": "function"
    },
    {
      "inputs": [
        {
          "internalType": "contract IERC20",
          "name": "token",
          "type": "address"
        },
        {
          "internalType": "address",
          "name": "account",
          "type": "address"
        }
      ],
      "name": "releasable",
      "outputs": [
        {
          "internalType": "uint256",
          "name": "",
          "type": "uint256"
        }
      ],
      "stateMutability": "view",
      "type": "function"
    },
    {
      "inputs": [
        {
          "internalType": "address payable",
          "name": "account",
          "type": "address"
        }
      ],
      "name": "release",
      "outputs": [],
      "stateMutability": "nonpayable",
      "type": "function"
    },
    {
      "inputs": [
        {
          "internalType": "contract IERC20",
          "name": "token",
          "type": "address"
        },
        {
          "internalType": "address",
          "name": "account",
          "type": "address"
        }
      ],
      "name": "release",
      "outputs": [],
      "stateMutability": "nonpayable",
      "type": "function"
    },
    {
      "inputs": [],
      "name": "releaseAll",
      "outputs": [],
      "stateMutability": "nonpayable",
      "type": "function"
    },
    {
      "inputs": [
        {
          "internalType": "contract IERC20",
          "name": "token",
          "type": "address"
        },
        {
          "internalType": "address",
          "name": "account",
          "type": "address"
        }
      ],
      "name": "released",
      "outputs": [
        {
          "internalType": "uint256",
          "name": "",
          "type": "uint256"
        }
      ],
      "stateMutability": "view",
      "type": "function"
    },
    {
      "inputs": [
        {
          "internalType": "address",
          "name": "account",
          "type": "address"
        }
      ],
      "name": "released",
      "outputs": [
        {
          "internalType": "uint256",
          "name": "",
          "type": "uint256"
        }
      ],
      "stateMutability": "view",
      "type": "function"
    },
    {
      "inputs": [],
      "name": "renounceOwnership",
      "outputs": [],
      "stateMutability": "nonpayable",
      "type": "function"
    },
    {
      "inputs": [],
      "name": "reveal",
      "outputs": [],
      "stateMutability": "nonpayable",
      "type": "function"
    },
    {
      "inputs": [],
      "name": "revealed",
      "outputs": [
        {
          "internalType": "bool",
          "name": "",
          "type": "bool"
        }
      ],
      "stateMutability": "view",
      "type": "function"
    },
    {
      "inputs": [
        {
          "internalType": "address",
          "name": "from",
          "type": "address"
        },
        {
          "internalType": "address",
          "name": "to",
          "type": "address"
        },
        {
          "internalType": "uint256",
          "name": "tokenId",
          "type": "uint256"
        }
      ],
      "name": "safeTransferFrom",
      "outputs": [],
      "stateMutability": "nonpayable",
      "type": "function"
    },
    {
      "inputs": [
        {
          "internalType": "address",
          "name": "from",
          "type": "address"
        },
        {
          "internalType": "address",
          "name": "to",
          "type": "address"
        },
        {
          "internalType": "uint256",
          "name": "tokenId",
          "type": "uint256"
        },
        {
          "internalType": "bytes",
          "name": "data",
          "type": "bytes"
        }
      ],
      "name": "safeTransferFrom",
      "outputs": [],
      "stateMutability": "nonpayable",
      "type": "function"
    },
    {
      "inputs": [
        {
          "internalType": "address",
          "name": "_account",
          "type": "address"
        },
        {
          "internalType": "uint256",
          "name": "_ammount",
          "type": "uint256"
        }
      ],
      "name": "saleMint",
      "outputs": [],
      "stateMutability": "payable",
      "type": "function"
    },
    {
      "inputs": [],
      "name": "saleStartTime",
      "outputs": [
        {
          "internalType": "uint256",
          "name": "",
          "type": "uint256"
        }
      ],
      "stateMutability": "view",
      "type": "function"
    },
    {
      "inputs": [],
      "name": "sellingStep",
      "outputs": [
        {
          "internalType": "enum OG.Steps",
          "name": "",
          "type": "uint8"
        }
      ],
      "stateMutability": "view",
      "type": "function"
    },
    {
      "inputs": [
        {
          "internalType": "address",
          "name": "operator",
          "type": "address"
        },
        {
          "internalType": "bool",
          "name": "approved",
          "type": "bool"
        }
      ],
      "name": "setApprovalForAll",
      "outputs": [],
      "stateMutability": "nonpayable",
      "type": "function"
    },
    {
      "inputs": [
        {
          "internalType": "string",
          "name": "_baseURI",
          "type": "string"
        }
      ],
      "name": "setBaseUri",
      "outputs": [],
      "stateMutability": "nonpayable",
      "type": "function"
    },
    {
      "inputs": [
        {
          "internalType": "uint256",
          "name": "_saleStartTime",
          "type": "uint256"
        }
      ],
      "name": "setSaleStartTime",
      "outputs": [],
      "stateMutability": "nonpayable",
      "type": "function"
    },
    {
      "inputs": [
        {
          "internalType": "uint256",
          "name": "_step",
          "type": "uint256"
        }
      ],
      "name": "setStep",
      "outputs": [],
      "stateMutability": "nonpayable",
      "type": "function"
    },
    {
      "inputs": [
        {
          "internalType": "address",
          "name": "account",
          "type": "address"
        }
      ],
      "name": "shares",
      "outputs": [
        {
          "internalType": "uint256",
          "name": "",
          "type": "uint256"
        }
      ],
      "stateMutability": "view",
      "type": "function"
    },
    {
      "inputs": [
        {
          "internalType": "bytes4",
          "name": "interfaceId",
          "type": "bytes4"
        }
      ],
      "name": "supportsInterface",
      "outputs": [
        {
          "internalType": "bool",
          "name": "",
          "type": "bool"
        }
      ],
      "stateMutability": "view",
      "type": "function"
    },
    {
      "inputs": [],
      "name": "symbol",
      "outputs": [
        {
          "internalType": "string",
          "name": "",
          "type": "string"
        }
      ],
      "stateMutability": "view",
      "type": "function"
    },
    {
      "inputs": [
        {
          "internalType": "uint256",
          "name": "index",
          "type": "uint256"
        }
      ],
      "name": "tokenByIndex",
      "outputs": [
        {
          "internalType": "uint256",
          "name": "",
          "type": "uint256"
        }
      ],
      "stateMutability": "view",
      "type": "function"
    },
    {
      "inputs": [
        {
          "internalType": "address",
          "name": "owner",
          "type": "address"
        },
        {
          "internalType": "uint256",
          "name": "index",
          "type": "uint256"
        }
      ],
      "name": "tokenOfOwnerByIndex",
      "outputs": [
        {
          "internalType": "uint256",
          "name": "",
          "type": "uint256"
        }
      ],
      "stateMutability": "view",
      "type": "function"
    },
    {
      "inputs": [
        {
          "internalType": "uint256",
          "name": "_tokenId",
          "type": "uint256"
        }
      ],
      "name": "tokenURI",
      "outputs": [
        {
          "internalType": "string",
          "name": "",
          "type": "string"
        }
      ],
      "stateMutability": "view",
      "type": "function"
    },
    {
      "inputs": [
        {
          "internalType": "contract IERC20",
          "name": "token",
          "type": "address"
        }
      ],
      "name": "totalReleased",
      "outputs": [
        {
          "internalType": "uint256",
          "name": "",
          "type": "uint256"
        }
      ],
      "stateMutability": "view",
      "type": "function"
    },
    {
      "inputs": [],
      "name": "totalReleased",
      "outputs": [
        {
          "internalType": "uint256",
          "name": "",
          "type": "uint256"
        }
      ],
      "stateMutability": "view",
      "type": "function"
    },
    {
      "inputs": [],
      "name": "totalShares",
      "outputs": [
        {
          "internalType": "uint256",
          "name": "",
          "type": "uint256"
        }
      ],
      "stateMutability": "view",
      "type": "function"
    },
    {
      "inputs": [],
      "name": "totalSupply",
      "outputs": [
        {
          "internalType": "uint256",
          "name": "",
          "type": "uint256"
        }
      ],
      "stateMutability": "view",
      "type": "function"
    },
    {
      "inputs": [
        {
          "internalType": "address",
          "name": "from",
          "type": "address"
        },
        {
          "internalType": "address",
          "name": "to",
          "type": "address"
        },
        {
          "internalType": "uint256",
          "name": "tokenId",
          "type": "uint256"
        }
      ],
      "name": "transferFrom",
      "outputs": [],
      "stateMutability": "nonpayable",
      "type": "function"
    },
    {
      "inputs": [
        {
          "internalType": "address",
          "name": "newOwner",
          "type": "address"
        }
      ],
      "name": "transferOwnership",
      "outputs": [],
      "stateMutability": "nonpayable",
      "type": "function"
    },
    {
      "stateMutability": "payable",
      "type": "receive"
    }
  ],
  "bytecode": "0x6016805460ff191690556611c37937e08000601755636227373060185560c060405273a47036c77cc6d9863147b47541df7219361b3679608090815273cfda2c868e82778e288ad5cdfeef3171f23bd65c60a0526200006390601b906002620005b0565b506040805180820190915260148152605060208201526200008990601c9060026200061a565b503480156200009757600080fd5b5060405162003de638038062003de6833981016040819052620000ba9162000739565b601b8054806020026020016040519081016040528092919081815260200182805480156200011257602002820191906000526020600020905b81546001600160a01b03168152600190910190602001808311620000f3575b5050505050601c8054806020026020016040519081016040528092919081815260200182805480156200016557602002820191906000526020600020905b81548152602001906001019080831162000150575b50505050506040518060400160405280600681526020016513d1dd195cdd60d21b815250604051806040016040528060058152602001645453544f4760d81b8152508160009081620001b8919062000832565b506001620001c7828262000832565b50505080518251146200023c5760405162461bcd60e51b815260206004820152603260248201527f5061796d656e7453706c69747465723a2070617965657320616e6420736861726044820152710cae640d8cadccee8d040dad2e6dac2e8c6d60731b60648201526084015b60405180910390fd5b60008251116200028f5760405162461bcd60e51b815260206004820152601a60248201527f5061796d656e7453706c69747465723a206e6f20706179656573000000000000604482015260640162000233565b60005b8251811015620002fb57620002e6838281518110620002b557620002b5620008fe565b6020026020010151838381518110620002d257620002d2620008fe565b60200260200101516200036360201b60201c565b80620002f2816200092a565b91505062000292565b50505062000318620003126200055160201b60201c565b62000555565b6001601281905550620003376013620005a760201b62001cf91760201c565b601462000345838262000832565b50601562000354828262000832565b5050601b54601a555062000962565b6001600160a01b038216620003d05760405162461bcd60e51b815260206004820152602c60248201527f5061796d656e7453706c69747465723a206163636f756e74206973207468652060448201526b7a65726f206164647265737360a01b606482015260840162000233565b60008111620004225760405162461bcd60e51b815260206004820152601d60248201527f5061796d656e7453706c69747465723a20736861726573206172652030000000604482015260640162000233565b6001600160a01b0382166000908152600c6020526040902054156200049e5760405162461bcd60e51b815260206004820152602b60248201527f5061796d656e7453706c69747465723a206163636f756e7420616c726561647960448201526a206861732073686172657360a81b606482015260840162000233565b600e8054600181019091557fbb7b4a454dc3493923482f07822329ed19e8244eff582cc204f8554c3620c3fd0180546001600160a01b0319166001600160a01b0384169081179091556000908152600c60205260409020819055600a546200050890829062000946565b600a55604080516001600160a01b0384168152602081018390527f40c340f65e17194d14ddddb073d3c9f888e3cb52b5aae0c6c7706b4fbc905fac910160405180910390a15050565b3390565b601180546001600160a01b038381166001600160a01b0319831681179093556040519116919082907f8be0079c531659141344cd1fd0a4f28419497f9722a3daafe3b4186f6b6457e090600090a35050565b80546001019055565b82805482825590600052602060002090810192821562000608579160200282015b828111156200060857825182546001600160a01b0319166001600160a01b03909116178255602090920191600190910190620005d1565b50620006169291506200065d565b5090565b82805482825590600052602060002090810192821562000608579160200282015b8281111562000608578251829060ff169055916020019190600101906200063b565b5b808211156200061657600081556001016200065e565b634e487b7160e01b600052604160045260246000fd5b600082601f8301126200069c57600080fd5b81516001600160401b0380821115620006b957620006b962000674565b604051601f8301601f19908116603f01168101908282118183101715620006e457620006e462000674565b816040528381526020925086838588010111156200070157600080fd5b600091505b8382101562000725578582018301518183018401529082019062000706565b600093810190920192909252949350505050565b600080604083850312156200074d57600080fd5b82516001600160401b03808211156200076557600080fd5b62000773868387016200068a565b935060208501519150808211156200078a57600080fd5b5062000799858286016200068a565b9150509250929050565b600181811c90821680620007b857607f821691505b602082108103620007d957634e487b7160e01b600052602260045260246000fd5b50919050565b601f8211156200082d57600081815260208120601f850160051c81016020861015620008085750805b601f850160051c820191505b81811015620008295782815560010162000814565b5050505b505050565b81516001600160401b038111156200084e576200084e62000674565b62000866816200085f8454620007a3565b84620007df565b602080601f8311600181146200089e5760008415620008855750858301515b600019600386901b1c1916600185901b17855562000829565b600085815260208120601f198616915b82811015620008cf57888601518255948401946001909101908401620008ae565b5085821015620008ee5787850151600019600388901b60f8161c191681555b5050505050600190811b01905550565b634e487b7160e01b600052603260045260246000fd5b634e487b7160e01b600052601160045260246000fd5b6000600182016200093f576200093f62000914565b5060010190565b808201808211156200095c576200095c62000914565b92915050565b61347480620009726000396000f3fe6080604052600436106102f65760003560e01c8063715018a61161018f578063a475b5dd116100e1578063ce7c2ac21161008a578063e985e9c511610064578063e985e9c5146108a5578063f2fde38b146108ee578063f8dcbddb1461090e57600080fd5b8063ce7c2ac214610824578063d79779b21461085a578063e33b7de31461089057600080fd5b8063c87b56dd116100bb578063c87b56dd146107b8578063cbccefb2146107d8578063cbfc4bce1461080457600080fd5b8063a475b5dd14610763578063b88d4fde14610778578063c45ac0501461079857600080fd5b806395d89b4111610143578063a0bcfc7f1161011d578063a0bcfc7f14610703578063a22cb46514610723578063a3f8eace1461074357600080fd5b806395d89b41146106985780639852595c146106ad5780639883566e146106e357600080fd5b806381a7927e1161017457806381a7927e146106445780638b83209b1461065a5780638da5cb5b1461067a57600080fd5b8063715018a61461061a578063722503801461062f57600080fd5b8063406072a91161024857806351830227116101fc5780636352211e116101d65780636352211e146105c55780636c0360eb146105e557806370a08231146105fa57600080fd5b80635183022714610576578063525f8a5c146105905780635be7fde8146105b057600080fd5b806347457a2c1161022d57806347457a2c1461052357806348b75044146105365780634f6ccce71461055657600080fd5b8063406072a9146104bd57806342842e0e1461050357600080fd5b806319165587116102aa5780632f745c59116102845780632f745c591461047357806332cb6b0c146104935780633a98ef39146104a857600080fd5b8063191655871461041d5780631cbaee2d1461043d57806323b872dd1461045357600080fd5b8063081812fc116102db578063081812fc146103a4578063095ea7b3146103dc57806318160ddd146103fe57600080fd5b806301ffc9a71461034d57806306fdde031461038257600080fd5b366103485760405162461bcd60e51b815260206004820152601060248201527f4f6e6c7920696620796f75206d696e740000000000000000000000000000000060448201526064015b60405180910390fd5b600080fd5b34801561035957600080fd5b5061036d610368366004612d86565b61092e565b60405190151581526020015b60405180910390f35b34801561038e57600080fd5b50610397610972565b6040516103799190612df3565b3480156103b057600080fd5b506103c46103bf366004612e06565b610a04565b6040516001600160a01b039091168152602001610379565b3480156103e857600080fd5b506103fc6103f7366004612e34565b610a2b565b005b34801561040a57600080fd5b506008545b604051908152602001610379565b34801561042957600080fd5b506103fc610438366004612e60565b610b5c565b34801561044957600080fd5b5061040f60185481565b34801561045f57600080fd5b506103fc61046e366004612e7d565b610cd8565b34801561047f57600080fd5b5061040f61048e366004612e34565b610d5f565b34801561049f57600080fd5b5061040f600581565b3480156104b457600080fd5b50600a5461040f565b3480156104c957600080fd5b5061040f6104d8366004612ebe565b6001600160a01b03918216600090815260106020908152604080832093909416825291909152205490565b34801561050f57600080fd5b506103fc61051e366004612e7d565b610e07565b6103fc610531366004612e34565b610e22565b34801561054257600080fd5b506103fc610551366004612ebe565b611151565b34801561056257600080fd5b5061040f610571366004612e06565b6112f7565b34801561058257600080fd5b5060165461036d9060ff1681565b34801561059c57600080fd5b506103fc6105ab366004612e06565b61139b565b3480156105bc57600080fd5b506103fc6113a8565b3480156105d157600080fd5b506103c46105e0366004612e06565b6113d6565b3480156105f157600080fd5b5061039761143b565b34801561060657600080fd5b5061040f610615366004612e60565b6114c9565b34801561062657600080fd5b506103fc611563565b34801561063b57600080fd5b50610397611577565b34801561065057600080fd5b5061040f60175481565b34801561066657600080fd5b506103c4610675366004612e06565b611584565b34801561068657600080fd5b506011546001600160a01b03166103c4565b3480156106a457600080fd5b506103976115b4565b3480156106b957600080fd5b5061040f6106c8366004612e60565b6001600160a01b03166000908152600d602052604090205490565b3480156106ef57600080fd5b506103fc6106fe366004612e34565b6115c3565b34801561070f57600080fd5b506103fc61071e366004612f83565b61186a565b34801561072f57600080fd5b506103fc61073e366004612fda565b611882565b34801561074f57600080fd5b5061040f61075e366004612e60565b61188d565b34801561076f57600080fd5b506103fc6118d5565b34801561078457600080fd5b506103fc610793366004613008565b6118ec565b3480156107a457600080fd5b5061040f6107b3366004612ebe565b61197a565b3480156107c457600080fd5b506103976107d3366004612e06565b611a5e565b3480156107e457600080fd5b506016546107f790610100900460ff1681565b604051610379919061309e565b34801561081057600080fd5b506103fc61081f366004612e60565b611b98565b34801561083057600080fd5b5061040f61083f366004612e60565b6001600160a01b03166000908152600c602052604090205490565b34801561086657600080fd5b5061040f610875366004612e60565b6001600160a01b03166000908152600f602052604090205490565b34801561089c57600080fd5b50600b5461040f565b3480156108b157600080fd5b5061036d6108c0366004612ebe565b6001600160a01b03918216600090815260056020908152604080832093909416825291909152205460ff1690565b3480156108fa57600080fd5b506103fc610909366004612e60565b611c2c565b34801561091a57600080fd5b506103fc610929366004612e06565b611cb9565b60006001600160e01b031982167f780e9d6300000000000000000000000000000000000000000000000000000000148061096c575061096c82611d02565b92915050565b606060008054610981906130c6565b80601f01602080910402602001604051908101604052809291908181526020018280546109ad906130c6565b80156109fa5780601f106109cf576101008083540402835291602001916109fa565b820191906000526020600020905b8154815290600101906020018083116109dd57829003601f168201915b5050505050905090565b6000610a0f82611d9d565b506000908152600460205260409020546001600160a01b031690565b6000610a36826113d6565b9050806001600160a01b0316836001600160a01b031603610abf5760405162461bcd60e51b815260206004820152602160248201527f4552433732313a20617070726f76616c20746f2063757272656e74206f776e6560448201527f7200000000000000000000000000000000000000000000000000000000000000606482015260840161033f565b336001600160a01b0382161480610adb5750610adb81336108c0565b610b4d5760405162461bcd60e51b815260206004820152603e60248201527f4552433732313a20617070726f76652063616c6c6572206973206e6f7420746f60448201527f6b656e206f776e6572206e6f7220617070726f76656420666f7220616c6c0000606482015260840161033f565b610b578383611e01565b505050565b6001600160a01b0381166000908152600c6020526040902054610bd05760405162461bcd60e51b815260206004820152602660248201527f5061796d656e7453706c69747465723a206163636f756e7420686173206e6f2060448201526573686172657360d01b606482015260840161033f565b6000610bdb8261188d565b905080600003610c415760405162461bcd60e51b815260206004820152602b60248201527f5061796d656e7453706c69747465723a206163636f756e74206973206e6f742060448201526a191d59481c185e5b595b9d60aa1b606482015260840161033f565b6001600160a01b0382166000908152600d602052604081208054839290610c69908490613116565b9250508190555080600b6000828254610c829190613116565b90915550610c9290508282611e7c565b604080516001600160a01b0384168152602081018390527fdf20fd1e76bc69d672e4814fafb2c449bba3a5369d8359adf9e05e6fde87b056910160405180910390a15050565b610ce23382611f95565b610d545760405162461bcd60e51b815260206004820152602e60248201527f4552433732313a2063616c6c6572206973206e6f7420746f6b656e206f776e6560448201527f72206e6f7220617070726f766564000000000000000000000000000000000000606482015260840161033f565b610b57838383612013565b6000610d6a836114c9565b8210610dde5760405162461bcd60e51b815260206004820152602b60248201527f455243373231456e756d657261626c653a206f776e657220696e646578206f7560448201527f74206f6620626f756e6473000000000000000000000000000000000000000000606482015260840161033f565b506001600160a01b03919091166000908152600660209081526040808320938352929052205490565b610b57838383604051806020016040528060008152506118ec565b600260125403610e745760405162461bcd60e51b815260206004820152601f60248201527f5265656e7472616e637947756172643a207265656e7472616e742063616c6c00604482015260640161033f565b6002601255323314610ec85760405162461bcd60e51b815260206004820152601e60248201527f5468652063616c6c657220697320616e6f7468657220636f6e74726163740000604482015260640161033f565b6000610ed360085490565b6017549091506003601654610100900460ff166004811115610ef757610ef7613088565b03610f445760405162461bcd60e51b815260206004820152601260248201527f546861742773206120536f6c64204f75742e0000000000000000000000000000604482015260640161033f565b6002601654610100900460ff166004811115610f6257610f62613088565b14610faf5760405162461bcd60e51b815260206004820181905260248201527f5761697420212073616c6520686173206e6f742073746172746564207965742e604482015260640161033f565b610fb98382613129565b3410156110085760405162461bcd60e51b815260206004820152601260248201527f4e6f7420656e6f756768742066756e64732e0000000000000000000000000000604482015260640161033f565b611013600280613116565b61101d8484613116565b111561106b5760405162461bcd60e51b815260206004820152601060248201527f4e6f204f4720617661696c61626c652e00000000000000000000000000000000604482015260640161033f565b33600090815260196020526040902054600190611089908590613116565b11156110d75760405162461bcd60e51b815260206004820152601f60248201527f4f6e6c792031204f472c20752073686f756c64206c65617665206e6f77202100604482015260640161033f565b33600090815260196020526040812080548592906110f6908490613116565b9091555061110e90508461110960135490565b6121f8565b61111c601380546001019055565b611127600280613116565b6111318484613116565b03611146576016805461ff0019166103001790555b505060016012555050565b6001600160a01b0381166000908152600c60205260409020546111c55760405162461bcd60e51b815260206004820152602660248201527f5061796d656e7453706c69747465723a206163636f756e7420686173206e6f2060448201526573686172657360d01b606482015260840161033f565b60006111d1838361197a565b9050806000036112375760405162461bcd60e51b815260206004820152602b60248201527f5061796d656e7453706c69747465723a206163636f756e74206973206e6f742060448201526a191d59481c185e5b595b9d60aa1b606482015260840161033f565b6001600160a01b0380841660009081526010602090815260408083209386168352929052908120805483929061126e908490613116565b90915550506001600160a01b0383166000908152600f60205260408120805483929061129b908490613116565b909155506112ac9050838383612212565b604080516001600160a01b038481168252602082018490528516917f3be5b7a71e84ed12875d241991c70855ac5817d847039e17a9d895c1ceb0f18a910160405180910390a2505050565b600061130260085490565b82106113765760405162461bcd60e51b815260206004820152602c60248201527f455243373231456e756d657261626c653a20676c6f62616c20696e646578206f60448201527f7574206f6620626f756e64730000000000000000000000000000000000000000606482015260840161033f565b6008828154811061138957611389613140565b90600052602060002001549050919050565b6113a3612292565b601855565b60005b601a548110156113d3576113c161043882611584565b806113cb81613156565b9150506113ab565b50565b6000818152600260205260408120546001600160a01b03168061096c5760405162461bcd60e51b815260206004820152601860248201527f4552433732313a20696e76616c696420746f6b656e2049440000000000000000604482015260640161033f565b60148054611448906130c6565b80601f0160208091040260200160405190810160405280929190818152602001828054611474906130c6565b80156114c15780601f10611496576101008083540402835291602001916114c1565b820191906000526020600020905b8154815290600101906020018083116114a457829003601f168201915b505050505081565b60006001600160a01b0382166115475760405162461bcd60e51b815260206004820152602960248201527f4552433732313a2061646472657373207a65726f206973206e6f74206120766160448201527f6c6964206f776e65720000000000000000000000000000000000000000000000606482015260840161033f565b506001600160a01b031660009081526003602052604090205490565b61156b612292565b61157560006122ec565b565b60158054611448906130c6565b6000600e828154811061159957611599613140565b6000918252602090912001546001600160a01b031692915050565b606060018054610981906130c6565b6002601254036116155760405162461bcd60e51b815260206004820152601f60248201527f5265656e7472616e637947756172643a207265656e7472616e742063616c6c00604482015260640161033f565b60026012553233146116695760405162461bcd60e51b815260206004820152601e60248201527f5468652063616c6c657220697320616e6f7468657220636f6e74726163740000604482015260640161033f565b600061167460085490565b90506018546116804290565b10156116ce5760405162461bcd60e51b815260206004820152600660248201527f5761697420210000000000000000000000000000000000000000000000000000604482015260640161033f565b6001601654610100900460ff1660048111156116ec576116ec613088565b146117395760405162461bcd60e51b815260206004820152601960248201527f746861742773206e6f7420746865206d6f6d656e742079657400000000000000604482015260640161033f565b60026117458383613116565b11156117935760405162461bcd60e51b815260206004820152601360248201527f4e6f206d6f72652046726565204d696e74732e00000000000000000000000000604482015260640161033f565b336000908152601960205260409020546001906117b1908490613116565b11156117ff5760405162461bcd60e51b815260206004820152601f60248201527f4f6e6c792031204f472c20752073686f756c64206c65617665206e6f77202100604482015260640161033f565b336000908152601960205260408120805484929061181e908490613116565b9091555061183190508361110960135490565b61183f601380546001019055565b600261184b8383613116565b03611860576016805461ff0019166102001790555b5050600160125550565b611872612292565b601461187e82826131bd565b5050565b61187e33838361234b565b600080611899600b5490565b6118a39047613116565b90506118ce83826118c9866001600160a01b03166000908152600d602052604090205490565b612419565b9392505050565b6118dd612292565b6016805460ff19166001179055565b6118f63383611f95565b6119685760405162461bcd60e51b815260206004820152602e60248201527f4552433732313a2063616c6c6572206973206e6f7420746f6b656e206f776e6560448201527f72206e6f7220617070726f766564000000000000000000000000000000000000606482015260840161033f565b61197484848484612457565b50505050565b6001600160a01b0382166000908152600f602052604081205481906040517f70a082310000000000000000000000000000000000000000000000000000000081523060048201526001600160a01b038616906370a0823190602401602060405180830381865afa1580156119f2573d6000803e3d6000fd5b505050506040513d601f19601f82011682018060405250810190611a16919061327d565b611a209190613116565b6001600160a01b03808616600090815260106020908152604080832093881683529290522054909150611a569084908390612419565b949350505050565b6000818152600260205260409020546060906001600160a01b0316611ac55760405162461bcd60e51b815260206004820152601f60248201527f55524920717565727920666f72206e6f6e6578697374656e7420746f6b656e00604482015260640161033f565b60165460ff161515600003611b665760158054611ae1906130c6565b80601f0160208091040260200160405190810160405280929190818152602001828054611b0d906130c6565b8015611b5a5780601f10611b2f57610100808354040283529160200191611b5a565b820191906000526020600020905b815481529060010190602001808311611b3d57829003601f168201915b50505050509050919050565b6014611b71836124d5565b604051602001611b82929190613296565b6040516020818303038152906040529050919050565b611ba0612292565b6000611bab60085490565b90506001611bba600280613116565b611bc49190613116565b611bcf826001613116565b1115611c1d5760405162461bcd60e51b815260206004820152600860248201527f536f6c64206f7574000000000000000000000000000000000000000000000000604482015260640161033f565b61187e82611109836001613116565b611c34612292565b6001600160a01b038116611cb05760405162461bcd60e51b815260206004820152602660248201527f4f776e61626c653a206e6577206f776e657220697320746865207a65726f206160448201527f6464726573730000000000000000000000000000000000000000000000000000606482015260840161033f565b6113d3816122ec565b611cc1612292565b806004811115611cd357611cd3613088565b6016805461ff001916610100836004811115611cf157611cf1613088565b021790555050565b80546001019055565b60006001600160e01b031982167f80ac58cd000000000000000000000000000000000000000000000000000000001480611d6557506001600160e01b031982167f5b5e139f00000000000000000000000000000000000000000000000000000000145b8061096c57507f01ffc9a7000000000000000000000000000000000000000000000000000000006001600160e01b031983161461096c565b6000818152600260205260409020546001600160a01b03166113d35760405162461bcd60e51b815260206004820152601860248201527f4552433732313a20696e76616c696420746f6b656e2049440000000000000000604482015260640161033f565b6000818152600460205260409020805473ffffffffffffffffffffffffffffffffffffffff19166001600160a01b0384169081179091558190611e43826113d6565b6001600160a01b03167f8c5be1e5ebec7d5bd14f71427d1e84f3dd0314c0f7b2291e5b200ac8c7c3b92560405160405180910390a45050565b80471015611ecc5760405162461bcd60e51b815260206004820152601d60248201527f416464726573733a20696e73756666696369656e742062616c616e6365000000604482015260640161033f565b6000826001600160a01b03168260405160006040518083038185875af1925050503d8060008114611f19576040519150601f19603f3d011682016040523d82523d6000602084013e611f1e565b606091505b5050905080610b575760405162461bcd60e51b815260206004820152603a60248201527f416464726573733a20756e61626c6520746f2073656e642076616c75652c207260448201527f6563697069656e74206d61792068617665207265766572746564000000000000606482015260840161033f565b600080611fa1836113d6565b9050806001600160a01b0316846001600160a01b03161480611fe857506001600160a01b0380821660009081526005602090815260408083209388168352929052205460ff165b80611a565750836001600160a01b031661200184610a04565b6001600160a01b031614949350505050565b826001600160a01b0316612026826113d6565b6001600160a01b0316146120a25760405162461bcd60e51b815260206004820152602560248201527f4552433732313a207472616e736665722066726f6d20696e636f72726563742060448201527f6f776e6572000000000000000000000000000000000000000000000000000000606482015260840161033f565b6001600160a01b03821661211d5760405162461bcd60e51b8152602060048201526024808201527f4552433732313a207472616e7366657220746f20746865207a65726f2061646460448201527f7265737300000000000000000000000000000000000000000000000000000000606482015260840161033f565b61212883838361260a565b612133600082611e01565b6001600160a01b038316600090815260036020526040812080546001929061215c908490613345565b90915550506001600160a01b038216600090815260036020526040812080546001929061218a908490613116565b9091555050600081815260026020526040808220805473ffffffffffffffffffffffffffffffffffffffff19166001600160a01b0386811691821790925591518493918716917fddf252ad1be2c89b69c2b068fc378daa952ba7f163c4a11628f55a4df523b3ef91a4505050565b61187e8282604051806020016040528060008152506126c2565b604080516001600160a01b038416602482015260448082018490528251808303909101815260649091019091526020810180517bffffffffffffffffffffffffffffffffffffffffffffffffffffffff167fa9059cbb00000000000000000000000000000000000000000000000000000000179052610b57908490612740565b6011546001600160a01b031633146115755760405162461bcd60e51b815260206004820181905260248201527f4f776e61626c653a2063616c6c6572206973206e6f7420746865206f776e6572604482015260640161033f565b601180546001600160a01b0383811673ffffffffffffffffffffffffffffffffffffffff19831681179093556040519116919082907f8be0079c531659141344cd1fd0a4f28419497f9722a3daafe3b4186f6b6457e090600090a35050565b816001600160a01b0316836001600160a01b0316036123ac5760405162461bcd60e51b815260206004820152601960248201527f4552433732313a20617070726f766520746f2063616c6c657200000000000000604482015260640161033f565b6001600160a01b03838116600081815260056020908152604080832094871680845294825291829020805460ff191686151590811790915591519182527f17307eab39ab6107e8899845ad3d59bd9653f200f220920489ca2b5937696c31910160405180910390a3505050565b600a546001600160a01b0384166000908152600c6020526040812054909183916124439086613129565b61244d919061336e565b611a569190613345565b612462848484612013565b61246e84848484612825565b6119745760405162461bcd60e51b815260206004820152603260248201527f4552433732313a207472616e7366657220746f206e6f6e20455243373231526560448201527131b2b4bb32b91034b6b83632b6b2b73a32b960711b606482015260840161033f565b60608160000361251857505060408051808201909152600181527f3000000000000000000000000000000000000000000000000000000000000000602082015290565b8160005b8115612542578061252c81613156565b915061253b9050600a8361336e565b915061251c565b60008167ffffffffffffffff81111561255d5761255d612ef7565b6040519080825280601f01601f191660200182016040528015612587576020820181803683370190505b5090505b8415611a565761259c600183613345565b91506125a9600a86613382565b6125b4906030613116565b60f81b8183815181106125c9576125c9613140565b60200101907effffffffffffffffffffffffffffffffffffffffffffffffffffffffffffff1916908160001a905350612603600a8661336e565b945061258b565b6001600160a01b0383166126655761266081600880546000838152600960205260408120829055600182018355919091527ff3f7a9fe364faab93b216da50a3214154f22a0a2b415b23a84c8169e8b636ee30155565b612688565b816001600160a01b0316836001600160a01b031614612688576126888382612971565b6001600160a01b03821661269f57610b5781612a0e565b826001600160a01b0316826001600160a01b031614610b5757610b578282612abd565b6126cc8383612b01565b6126d96000848484612825565b610b575760405162461bcd60e51b815260206004820152603260248201527f4552433732313a207472616e7366657220746f206e6f6e20455243373231526560448201527131b2b4bb32b91034b6b83632b6b2b73a32b960711b606482015260840161033f565b6000612795826040518060400160405280602081526020017f5361666545524332303a206c6f772d6c6576656c2063616c6c206661696c6564815250856001600160a01b0316612c5c9092919063ffffffff16565b805190915015610b5757808060200190518101906127b39190613396565b610b575760405162461bcd60e51b815260206004820152602a60248201527f5361666545524332303a204552433230206f7065726174696f6e20646964206e60448201527f6f74207375636365656400000000000000000000000000000000000000000000606482015260840161033f565b60006001600160a01b0384163b1561296657604051630a85bd0160e11b81526001600160a01b0385169063150b7a02906128699033908990889088906004016133b3565b6020604051808303816000875af19250505080156128a4575060408051601f3d908101601f191682019092526128a1918101906133ef565b60015b61294c573d8080156128d2576040519150601f19603f3d011682016040523d82523d6000602084013e6128d7565b606091505b5080516000036129445760405162461bcd60e51b815260206004820152603260248201527f4552433732313a207472616e7366657220746f206e6f6e20455243373231526560448201527131b2b4bb32b91034b6b83632b6b2b73a32b960711b606482015260840161033f565b805181602001fd5b6001600160e01b031916630a85bd0160e11b149050611a56565b506001949350505050565b6000600161297e846114c9565b6129889190613345565b6000838152600760205260409020549091508082146129db576001600160a01b03841660009081526006602090815260408083208584528252808320548484528184208190558352600790915290208190555b5060009182526007602090815260408084208490556001600160a01b039094168352600681528383209183525290812055565b600854600090612a2090600190613345565b60008381526009602052604081205460088054939450909284908110612a4857612a48613140565b906000526020600020015490508060088381548110612a6957612a69613140565b6000918252602080832090910192909255828152600990915260408082208490558582528120556008805480612aa157612aa161340c565b6001900381819060005260206000200160009055905550505050565b6000612ac8836114c9565b6001600160a01b039093166000908152600660209081526040808320868452825280832085905593825260079052919091209190915550565b6001600160a01b038216612b575760405162461bcd60e51b815260206004820181905260248201527f4552433732313a206d696e7420746f20746865207a65726f2061646472657373604482015260640161033f565b6000818152600260205260409020546001600160a01b031615612bbc5760405162461bcd60e51b815260206004820152601c60248201527f4552433732313a20746f6b656e20616c7265616479206d696e74656400000000604482015260640161033f565b612bc86000838361260a565b6001600160a01b0382166000908152600360205260408120805460019290612bf1908490613116565b9091555050600081815260026020526040808220805473ffffffffffffffffffffffffffffffffffffffff19166001600160a01b03861690811790915590518392907fddf252ad1be2c89b69c2b068fc378daa952ba7f163c4a11628f55a4df523b3ef908290a45050565b6060611a568484600085856001600160a01b0385163b612cbe5760405162461bcd60e51b815260206004820152601d60248201527f416464726573733a2063616c6c20746f206e6f6e2d636f6e7472616374000000604482015260640161033f565b600080866001600160a01b03168587604051612cda9190613422565b60006040518083038185875af1925050503d8060008114612d17576040519150601f19603f3d011682016040523d82523d6000602084013e612d1c565b606091505b5091509150612d2c828286612d37565b979650505050505050565b60608315612d465750816118ce565b825115612d565782518084602001fd5b8160405162461bcd60e51b815260040161033f9190612df3565b6001600160e01b0319811681146113d357600080fd5b600060208284031215612d9857600080fd5b81356118ce81612d70565b60005b83811015612dbe578181015183820152602001612da6565b50506000910152565b60008151808452612ddf816020860160208601612da3565b601f01601f19169290920160200192915050565b6020815260006118ce6020830184612dc7565b600060208284031215612e1857600080fd5b5035919050565b6001600160a01b03811681146113d357600080fd5b60008060408385031215612e4757600080fd5b8235612e5281612e1f565b946020939093013593505050565b600060208284031215612e7257600080fd5b81356118ce81612e1f565b600080600060608486031215612e9257600080fd5b8335612e9d81612e1f565b92506020840135612ead81612e1f565b929592945050506040919091013590565b60008060408385031215612ed157600080fd5b8235612edc81612e1f565b91506020830135612eec81612e1f565b809150509250929050565b634e487b7160e01b600052604160045260246000fd5b600067ffffffffffffffff80841115612f2857612f28612ef7565b604051601f8501601f19908116603f01168101908282118183101715612f5057612f50612ef7565b81604052809350858152868686011115612f6957600080fd5b858560208301376000602087830101525050509392505050565b600060208284031215612f9557600080fd5b813567ffffffffffffffff811115612fac57600080fd5b8201601f81018413612fbd57600080fd5b611a5684823560208401612f0d565b80151581146113d357600080fd5b60008060408385031215612fed57600080fd5b8235612ff881612e1f565b91506020830135612eec81612fcc565b6000806000806080858703121561301e57600080fd5b843561302981612e1f565b9350602085013561303981612e1f565b925060408501359150606085013567ffffffffffffffff81111561305c57600080fd5b8501601f8101871361306d57600080fd5b61307c87823560208401612f0d565b91505092959194509250565b634e487b7160e01b600052602160045260246000fd5b60208101600583106130c057634e487b7160e01b600052602160045260246000fd5b91905290565b600181811c908216806130da57607f821691505b6020821081036130fa57634e487b7160e01b600052602260045260246000fd5b50919050565b634e487b7160e01b600052601160045260246000fd5b8082018082111561096c5761096c613100565b808202811582820484141761096c5761096c613100565b634e487b7160e01b600052603260045260246000fd5b60006001820161316857613168613100565b5060010190565b601f821115610b5757600081815260208120601f850160051c810160208610156131965750805b601f850160051c820191505b818110156131b5578281556001016131a2565b505050505050565b815167ffffffffffffffff8111156131d7576131d7612ef7565b6131eb816131e584546130c6565b8461316f565b602080601f83116001811461322057600084156132085750858301515b600019600386901b1c1916600185901b1785556131b5565b600085815260208120601f198616915b8281101561324f57888601518255948401946001909101908401613230565b508582101561326d5787850151600019600388901b60f8161c191681555b5050505050600190811b01905550565b60006020828403121561328f57600080fd5b5051919050565b60008084546132a4816130c6565b600182811680156132bc57600181146132d157613300565b60ff1984168752821515830287019450613300565b8860005260208060002060005b858110156132f75781548a8201529084019082016132de565b50505082870194505b505050508351613314818360208801612da3565b7f2e6a736f6e0000000000000000000000000000000000000000000000000000009101908152600501949350505050565b8181038181111561096c5761096c613100565b634e487b7160e01b600052601260045260246000fd5b60008261337d5761337d613358565b500490565b60008261339157613391613358565b500690565b6000602082840312156133a857600080fd5b81516118ce81612fcc565b60006001600160a01b038087168352808616602084015250836040830152608060608301526133e56080830184612dc7565b9695505050505050565b60006020828403121561340157600080fd5b81516118ce81612d70565b634e487b7160e01b600052603160045260246000fd5b60008251613434818460208701612da3565b919091019291505056fea26469706673582212207029cebc13ab0db5ee6f9a772e69a3591fb5faba88373e0327c254c41ac4659364736f6c63430008110033",
  "linkReferences": {},
  "deployedLinkReferences": {}
}