{
  "_format": "hh-sol-artifact-1",
  "contractName": "MetaMindGames",
  "sourceName": "contracts/MetaMindGames.sol",
  "abi": [
    {
      "inputs": [
        {
          "internalType": "address[]",
          "name": "_team",
          "type": "address[]"
        },
        {
          "internalType": "uint256[]",
          "name": "_teamShares",
          "type": "uint256[]"
        }
      ],
      "stateMutability": "nonpayable",
      "type": "constructor"
    },
    {
      "anonymous": false,
      "inputs": [
        {
          "indexed": true,
          "internalType": "address",
          "name": "owner",
          "type": "address"
        },
        {
          "indexed": true,
          "internalType": "address",
          "name": "approved",
          "type": "address"
        },
        {
          "indexed": true,
          "internalType": "uint256",
          "name": "tokenId",
          "type": "uint256"
        }
      ],
      "name": "Approval",
      "type": "event"
    },
    {
      "anonymous": false,
      "inputs": [
        {
          "indexed": true,
          "internalType": "address",
          "name": "owner",
          "type": "address"
        },
        {
          "indexed": true,
          "internalType": "address",
          "name": "operator",
          "type": "address"
        },
        {
          "indexed": false,
          "internalType": "bool",
          "name": "approved",
          "type": "bool"
        }
      ],
      "name": "ApprovalForAll",
      "type": "event"
    },
    {
      "anonymous": false,
      "inputs": [
        {
          "indexed": true,
          "internalType": "contract IERC20",
          "name": "token",
          "type": "address"
        },
        {
          "indexed": false,
          "internalType": "address",
          "name": "to",
          "type": "address"
        },
        {
          "indexed": false,
          "internalType": "uint256",
          "name": "amount",
          "type": "uint256"
        }
      ],
      "name": "ERC20PaymentReleased",
      "type": "event"
    },
    {
      "anonymous": false,
      "inputs": [
        {
          "indexed": true,
          "internalType": "address",
          "name": "previousOwner",
          "type": "address"
        },
        {
          "indexed": true,
          "internalType": "address",
          "name": "newOwner",
          "type": "address"
        }
      ],
      "name": "OwnershipTransferred",
      "type": "event"
    },
    {
      "anonymous": false,
      "inputs": [
        {
          "indexed": false,
          "internalType": "address",
          "name": "account",
          "type": "address"
        },
        {
          "indexed": false,
          "internalType": "uint256",
          "name": "shares",
          "type": "uint256"
        }
      ],
      "name": "PayeeAdded",
      "type": "event"
    },
    {
      "anonymous": false,
      "inputs": [
        {
          "indexed": false,
          "internalType": "address",
          "name": "from",
          "type": "address"
        },
        {
          "indexed": false,
          "internalType": "uint256",
          "name": "amount",
          "type": "uint256"
        }
      ],
      "name": "PaymentReceived",
      "type": "event"
    },
    {
      "anonymous": false,
      "inputs": [
        {
          "indexed": false,
          "internalType": "address",
          "name": "to",
          "type": "address"
        },
        {
          "indexed": false,
          "internalType": "uint256",
          "name": "amount",
          "type": "uint256"
        }
      ],
      "name": "PaymentReleased",
      "type": "event"
    },
    {
      "anonymous": false,
      "inputs": [
        {
          "indexed": true,
          "internalType": "address",
          "name": "from",
          "type": "address"
        },
        {
          "indexed": true,
          "internalType": "address",
          "name": "to",
          "type": "address"
        },
        {
          "indexed": true,
          "internalType": "uint256",
          "name": "tokenId",
          "type": "uint256"
        }
      ],
      "name": "Transfer",
      "type": "event"
    },
    {
      "inputs": [],
      "name": "Currentstep",
      "outputs": [
        {
          "internalType": "enum MetaMindGames.Step",
          "name": "",
          "type": "uint8"
        }
      ],
      "stateMutability": "view",
      "type": "function"
    },
    {
      "inputs": [],
      "name": "GEN1_SALE_PRICE",
      "outputs": [
        {
          "internalType": "uint256",
          "name": "",
          "type": "uint256"
        }
      ],
      "stateMutability": "view",
      "type": "function"
    },
    {
      "inputs": [],
      "name": "GEN2_SALE_PRICE",
      "outputs": [
        {
          "internalType": "uint256",
          "name": "",
          "type": "uint256"
        }
      ],
      "stateMutability": "view",
      "type": "function"
    },
    {
      "inputs": [],
      "name": "MAX_PER_ADRESS_GEN1_MINT",
      "outputs": [
        {
          "internalType": "uint256",
          "name": "",
          "type": "uint256"
        }
      ],
      "stateMutability": "view",
      "type": "function"
    },
    {
      "inputs": [],
      "name": "MAX_PER_ADRESS_GEN2_MINT",
      "outputs": [
        {
          "internalType": "uint256",
          "name": "",
          "type": "uint256"
        }
      ],
      "stateMutability": "view",
      "type": "function"
    },
    {
      "inputs": [],
      "name": "MAX_PER_ADRESS_PUBLIC_MINT",
      "outputs": [
        {
          "internalType": "uint256",
          "name": "",
          "type": "uint256"
        }
      ],
      "stateMutability": "view",
      "type": "function"
    },
    {
      "inputs": [],
      "name": "MAX_SUPPLY",
      "outputs": [
        {
          "internalType": "uint256",
          "name": "",
          "type": "uint256"
        }
      ],
      "stateMutability": "view",
      "type": "function"
    },
    {
      "inputs": [],
      "name": "MAX_TEAM_MINT",
      "outputs": [
        {
          "internalType": "uint256",
          "name": "",
          "type": "uint256"
        }
      ],
      "stateMutability": "view",
      "type": "function"
    },
    {
      "inputs": [],
      "name": "PUBLIC_SALE_PRICE",
      "outputs": [
        {
          "internalType": "uint256",
          "name": "",
          "type": "uint256"
        }
      ],
      "stateMutability": "view",
      "type": "function"
    },
    {
      "inputs": [
        {
          "internalType": "address",
          "name": "to",
          "type": "address"
        },
        {
          "internalType": "uint256",
          "name": "tokenId",
          "type": "uint256"
        }
      ],
      "name": "approve",
      "outputs": [],
      "stateMutability": "nonpayable",
      "type": "function"
    },
    {
      "inputs": [
        {
          "internalType": "address",
          "name": "owner",
          "type": "address"
        }
      ],
      "name": "balanceOf",
      "outputs": [
        {
          "internalType": "uint256",
          "name": "",
          "type": "uint256"
        }
      ],
      "stateMutability": "view",
      "type": "function"
    },
    {
      "inputs": [
        {
          "internalType": "bytes32[]",
          "name": "_merkleProof",
          "type": "bytes32[]"
        },
        {
          "internalType": "uint256",
          "name": "_quantity",
          "type": "uint256"
        }
      ],
      "name": "gen1Mint",
      "outputs": [],
      "stateMutability": "payable",
      "type": "function"
    },
    {
      "inputs": [
        {
          "internalType": "bytes32[]",
          "name": "_merkleProof",
          "type": "bytes32[]"
        },
        {
          "internalType": "uint256",
          "name": "_quantity",
          "type": "uint256"
        }
      ],
      "name": "gen2Mint",
      "outputs": [],
      "stateMutability": "payable",
      "type": "function"
    },
    {
      "inputs": [
        {
          "internalType": "uint256",
          "name": "tokenId",
          "type": "uint256"
        }
      ],
      "name": "getApproved",
      "outputs": [
        {
          "internalType": "address",
          "name": "",
          "type": "address"
        }
      ],
      "stateMutability": "view",
      "type": "function"
    },
    {
      "inputs": [],
      "name": "getGen1MerkleRoot",
      "outputs": [
        {
          "internalType": "bytes32",
          "name": "",
          "type": "bytes32"
        }
      ],
      "stateMutability": "view",
      "type": "function"
    },
    {
      "inputs": [],
      "name": "getGen2MerkleRoot",
      "outputs": [
        {
          "internalType": "bytes32",
          "name": "",
          "type": "bytes32"
        }
      ],
      "stateMutability": "view",
      "type": "function"
    },
    {
      "inputs": [
        {
          "internalType": "address",
          "name": "to",
          "type": "address"
        },
        {
          "internalType": "uint256",
          "name": "_quantity",
          "type": "uint256"
        }
      ],
      "name": "gift",
      "outputs": [],
      "stateMutability": "nonpayable",
      "type": "function"
    },
    {
      "inputs": [
        {
          "internalType": "address",
          "name": "owner",
          "type": "address"
        },
        {
          "internalType": "address",
          "name": "operator",
          "type": "address"
        }
      ],
      "name": "isApprovedForAll",
      "outputs": [
        {
          "internalType": "bool",
          "name": "",
          "type": "bool"
        }
      ],
      "stateMutability": "view",
      "type": "function"
    },
    {
      "inputs": [
        {
          "internalType": "address",
          "name": "_account",
          "type": "address"
        },
        {
          "internalType": "bytes32[]",
          "name": "_proof",
          "type": "bytes32[]"
        }
      ],
      "name": "isGen1",
      "outputs": [
        {
          "internalType": "bool",
          "name": "",
          "type": "bool"
        }
      ],
      "stateMutability": "view",
      "type": "function"
    },
    {
      "inputs": [
        {
          "internalType": "address",
          "name": "_account",
          "type": "address"
        },
        {
          "internalType": "bytes32[]",
          "name": "_proof",
          "type": "bytes32[]"
        }
      ],
      "name": "isGen2",
      "outputs": [
        {
          "internalType": "bool",
          "name": "",
          "type": "bool"
        }
      ],
      "stateMutability": "view",
      "type": "function"
    },
    {
      "inputs": [
        {
          "internalType": "uint256",
          "name": "_quantity",
          "type": "uint256"
        }
      ],
      "name": "mint",
      "outputs": [],
      "stateMutability": "payable",
      "type": "function"
    },
    {
      "inputs": [],
      "name": "name",
      "outputs": [
        {
          "internalType": "string",
          "name": "",
          "type": "string"
        }
      ],
      "stateMutability": "view",
      "type": "function"
    },
    {
      "inputs": [],
      "name": "nextOwnerToExplicitlySet",
      "outputs": [
        {
          "internalType": "uint256",
          "name": "",
          "type": "uint256"
        }
      ],
      "stateMutability": "view",
      "type": "function"
    },
    {
      "inputs": [],
      "name": "owner",
      "outputs": [
        {
          "internalType": "address",
          "name": "",
          "type": "address"
        }
      ],
      "stateMutability": "view",
      "type": "function"
    },
    {
      "inputs": [
        {
          "internalType": "uint256",
          "name": "tokenId",
          "type": "uint256"
        }
      ],
      "name": "ownerOf",
      "outputs": [
        {
          "internalType": "address",
          "name": "",
          "type": "address"
        }
      ],
      "stateMutability": "view",
      "type": "function"
    },
    {
      "inputs": [
        {
          "internalType": "uint256",
          "name": "index",
          "type": "uint256"
        }
      ],
      "name": "payee",
      "outputs": [
        {
          "internalType": "address",
          "name": "",
          "type": "address"
        }
      ],
      "stateMutability": "view",
      "type": "function"
    },
    {
      "inputs": [
        {
          "internalType": "address",
          "name": "account",
          "type": "address"
        }
      ],
      "name": "releasable",
      "outputs": [
        {
          "internalType": "uint256",
          "name": "",
          "type": "uint256"
        }
      ],
      "stateMutability": "view",
      "type": "function"
    },
    {
      "inputs": [
        {
          "internalType": "contract IERC20",
          "name": "token",
          "type": "address"
        },
        {
          "internalType": "address",
          "name": "account",
          "type": "address"
        }
      ],
      "name": "releasable",
      "outputs": [
        {
          "internalType": "uint256",
          "name": "",
          "type": "uint256"
        }
      ],
      "stateMutability": "view",
      "type": "function"
    },
    {
      "inputs": [
        {
          "internalType": "address payable",
          "name": "account",
          "type": "address"
        }
      ],
      "name": "release",
      "outputs": [],
      "stateMutability": "nonpayable",
      "type": "function"
    },
    {
      "inputs": [
        {
          "internalType": "contract IERC20",
          "name": "token",
          "type": "address"
        },
        {
          "internalType": "address",
          "name": "account",
          "type": "address"
        }
      ],
      "name": "release",
      "outputs": [],
      "stateMutability": "nonpayable",
      "type": "function"
    },
    {
      "inputs": [
        {
          "internalType": "contract IERC20",
          "name": "token",
          "type": "address"
        },
        {
          "internalType": "address",
          "name": "account",
          "type": "address"
        }
      ],
      "name": "released",
      "outputs": [
        {
          "internalType": "uint256",
          "name": "",
          "type": "uint256"
        }
      ],
      "stateMutability": "view",
      "type": "function"
    },
    {
      "inputs": [
        {
          "internalType": "address",
          "name": "account",
          "type": "address"
        }
      ],
      "name": "released",
      "outputs": [
        {
          "internalType": "uint256",
          "name": "",
          "type": "uint256"
        }
      ],
      "stateMutability": "view",
      "type": "function"
    },
    {
      "inputs": [],
      "name": "renounceOwnership",
      "outputs": [],
      "stateMutability": "nonpayable",
      "type": "function"
    },
    {
      "inputs": [
        {
          "internalType": "address",
          "name": "from",
          "type": "address"
        },
        {
          "internalType": "address",
          "name": "to",
          "type": "address"
        },
        {
          "internalType": "uint256",
          "name": "tokenId",
          "type": "uint256"
        }
      ],
      "name": "safeTransferFrom",
      "outputs": [],
      "stateMutability": "nonpayable",
      "type": "function"
    },
    {
      "inputs": [
        {
          "internalType": "address",
          "name": "from",
          "type": "address"
        },
        {
          "internalType": "address",
          "name": "to",
          "type": "address"
        },
        {
          "internalType": "uint256",
          "name": "tokenId",
          "type": "uint256"
        },
        {
          "internalType": "bytes",
          "name": "_data",
          "type": "bytes"
        }
      ],
      "name": "safeTransferFrom",
      "outputs": [],
      "stateMutability": "nonpayable",
      "type": "function"
    },
    {
      "inputs": [
        {
          "internalType": "address",
          "name": "operator",
          "type": "address"
        },
        {
          "internalType": "bool",
          "name": "approved",
          "type": "bool"
        }
      ],
      "name": "setApprovalForAll",
      "outputs": [],
      "stateMutability": "nonpayable",
      "type": "function"
    },
    {
      "inputs": [
        {
          "internalType": "bytes32",
          "name": "_merkleRoot",
          "type": "bytes32"
        }
      ],
      "name": "setGen1MerkleRoot",
      "outputs": [],
      "stateMutability": "nonpayable",
      "type": "function"
    },
    {
      "inputs": [
        {
          "internalType": "bytes32",
          "name": "_merkleRoot",
          "type": "bytes32"
        }
      ],
      "name": "setGen2MerkleRoot",
      "outputs": [],
      "stateMutability": "nonpayable",
      "type": "function"
    },
    {
      "inputs": [
        {
          "internalType": "uint256",
          "name": "_step",
          "type": "uint256"
        }
      ],
      "name": "setStep",
      "outputs": [],
      "stateMutability": "nonpayable",
      "type": "function"
    },
    {
      "inputs": [
        {
          "internalType": "string",
          "name": "_baseTokenUri",
          "type": "string"
        }
      ],
      "name": "setTokenUri",
      "outputs": [],
      "stateMutability": "nonpayable",
      "type": "function"
    },
    {
      "inputs": [
        {
          "internalType": "address",
          "name": "account",
          "type": "address"
        }
      ],
      "name": "shares",
      "outputs": [
        {
          "internalType": "uint256",
          "name": "",
          "type": "uint256"
        }
      ],
      "stateMutability": "view",
      "type": "function"
    },
    {
      "inputs": [
        {
          "internalType": "bytes4",
          "name": "interfaceId",
          "type": "bytes4"
        }
      ],
      "name": "supportsInterface",
      "outputs": [
        {
          "internalType": "bool",
          "name": "",
          "type": "bool"
        }
      ],
      "stateMutability": "view",
      "type": "function"
    },
    {
      "inputs": [],
      "name": "symbol",
      "outputs": [
        {
          "internalType": "string",
          "name": "",
          "type": "string"
        }
      ],
      "stateMutability": "view",
      "type": "function"
    },
    {
      "inputs": [
        {
          "internalType": "uint256",
          "name": "_quantity",
          "type": "uint256"
        }
      ],
      "name": "teamMint",
      "outputs": [],
      "stateMutability": "nonpayable",
      "type": "function"
    },
    {
      "inputs": [
        {
          "internalType": "uint256",
          "name": "index",
          "type": "uint256"
        }
      ],
      "name": "tokenByIndex",
      "outputs": [
        {
          "internalType": "uint256",
          "name": "",
          "type": "uint256"
        }
      ],
      "stateMutability": "view",
      "type": "function"
    },
    {
      "inputs": [
        {
          "internalType": "address",
          "name": "owner",
          "type": "address"
        },
        {
          "internalType": "uint256",
          "name": "index",
          "type": "uint256"
        }
      ],
      "name": "tokenOfOwnerByIndex",
      "outputs": [
        {
          "internalType": "uint256",
          "name": "",
          "type": "uint256"
        }
      ],
      "stateMutability": "view",
      "type": "function"
    },
    {
      "inputs": [
        {
          "internalType": "uint256",
          "name": "tokenId",
          "type": "uint256"
        }
      ],
      "name": "tokenURI",
      "outputs": [
        {
          "internalType": "string",
          "name": "",
          "type": "string"
        }
      ],
      "stateMutability": "view",
      "type": "function"
    },
    {
      "inputs": [
        {
          "internalType": "address",
          "name": "",
          "type": "address"
        }
      ],
      "name": "totalGen1Mint",
      "outputs": [
        {
          "internalType": "uint256",
          "name": "",
          "type": "uint256"
        }
      ],
      "stateMutability": "view",
      "type": "function"
    },
    {
      "inputs": [
        {
          "internalType": "address",
          "name": "",
          "type": "address"
        }
      ],
      "name": "totalGen2Mint",
      "outputs": [
        {
          "internalType": "uint256",
          "name": "",
          "type": "uint256"
        }
      ],
      "stateMutability": "view",
      "type": "function"
    },
    {
      "inputs": [
        {
          "internalType": "address",
          "name": "",
          "type": "address"
        }
      ],
      "name": "totalPublicMint",
      "outputs": [
        {
          "internalType": "uint256",
          "name": "",
          "type": "uint256"
        }
      ],
      "stateMutability": "view",
      "type": "function"
    },
    {
      "inputs": [
        {
          "internalType": "contract IERC20",
          "name": "token",
          "type": "address"
        }
      ],
      "name": "totalReleased",
      "outputs": [
        {
          "internalType": "uint256",
          "name": "",
          "type": "uint256"
        }
      ],
      "stateMutability": "view",
      "type": "function"
    },
    {
      "inputs": [],
      "name": "totalReleased",
      "outputs": [
        {
          "internalType": "uint256",
          "name": "",
          "type": "uint256"
        }
      ],
      "stateMutability": "view",
      "type": "function"
    },
    {
      "inputs": [],
      "name": "totalShares",
      "outputs": [
        {
          "internalType": "uint256",
          "name": "",
          "type": "uint256"
        }
      ],
      "stateMutability": "view",
      "type": "function"
    },
    {
      "inputs": [],
      "name": "totalSupply",
      "outputs": [
        {
          "internalType": "uint256",
          "name": "",
          "type": "uint256"
        }
      ],
      "stateMutability": "view",
      "type": "function"
    },
    {
      "inputs": [
        {
          "internalType": "address",
          "name": "from",
          "type": "address"
        },
        {
          "internalType": "address",
          "name": "to",
          "type": "address"
        },
        {
          "internalType": "uint256",
          "name": "tokenId",
          "type": "uint256"
        }
      ],
      "name": "transferFrom",
      "outputs": [],
      "stateMutability": "nonpayable",
      "type": "function"
    },
    {
      "inputs": [
        {
          "internalType": "address",
          "name": "newOwner",
          "type": "address"
        }
      ],
      "name": "transferOwnership",
      "outputs": [],
      "stateMutability": "nonpayable",
      "type": "function"
    },
    {
      "inputs": [],
      "name": "walletOf",
      "outputs": [
        {
          "internalType": "uint256[]",
          "name": "",
          "type": "uint256[]"
        }
      ],
      "stateMutability": "view",
      "type": "function"
    },
    {
      "inputs": [],
      "name": "withdraw",
      "outputs": [],
      "stateMutability": "nonpayable",
      "type": "function"
    },
    {
      "stateMutability": "payable",
      "type": "receive"
    }
  ],
  "bytecode": "0x60c06040526000805560006007553480156200001a57600080fd5b506040516200478b3803806200478b8339810160408190526200003d91620005ed565b81816040518060400160405280600d81526020016c4d6574614d696e6447616d657360981b815250604051806040016040528060048152602001634d544d4760e01b815250601461019460008111620000f45760405162461bcd60e51b815260206004820152602e60248201527f455243373231413a20636f6c6c656374696f6e206d757374206861766520612060448201526d6e6f6e7a65726f20737570706c7960901b60648201526084015b60405180910390fd5b60008211620001565760405162461bcd60e51b815260206004820152602760248201527f455243373231413a206d61782062617463682073697a65206d757374206265206044820152666e6f6e7a65726f60c81b6064820152608401620000eb565b60016200016485826200075a565b5060026200017384826200075a565b5060a091909152608052506200018b905033620002cb565b8051825114620001f95760405162461bcd60e51b815260206004820152603260248201527f5061796d656e7453706c69747465723a2070617965657320616e6420736861726044820152710cae640d8cadccee8d040dad2e6dac2e8c6d60731b6064820152608401620000eb565b60008251116200024c5760405162461bcd60e51b815260206004820152601a60248201527f5061796d656e7453706c69747465723a206e6f207061796565730000000000006044820152606401620000eb565b60005b8251811015620002b857620002a383828151811062000272576200027262000826565b60200260200101518383815181106200028f576200028f62000826565b60200260200101516200031d60201b60201c565b80620002af8162000852565b9150506200024f565b505060016010555050516018556200088a565b600880546001600160a01b038381166001600160a01b0319831681179093556040519116919082907f8be0079c531659141344cd1fd0a4f28419497f9722a3daafe3b4186f6b6457e090600090a35050565b6001600160a01b0382166200038a5760405162461bcd60e51b815260206004820152602c60248201527f5061796d656e7453706c69747465723a206163636f756e74206973207468652060448201526b7a65726f206164647265737360a01b6064820152608401620000eb565b60008111620003dc5760405162461bcd60e51b815260206004820152601d60248201527f5061796d656e7453706c69747465723a207368617265732061726520300000006044820152606401620000eb565b6001600160a01b0382166000908152600b602052604090205415620004585760405162461bcd60e51b815260206004820152602b60248201527f5061796d656e7453706c69747465723a206163636f756e7420616c726561647960448201526a206861732073686172657360a81b6064820152608401620000eb565b600d8054600181019091557fd7b6990105719101dabeb77144f2a3385c8033acd3af97e9423a695e81ad1eb50180546001600160a01b0319166001600160a01b0384169081179091556000908152600b60205260409020819055600954620004c29082906200086e565b600955604080516001600160a01b0384168152602081018390527f40c340f65e17194d14ddddb073d3c9f888e3cb52b5aae0c6c7706b4fbc905fac910160405180910390a15050565b634e487b7160e01b600052604160045260246000fd5b604051601f8201601f191681016001600160401b03811182821017156200054c576200054c6200050b565b604052919050565b60006001600160401b038211156200057057620005706200050b565b5060051b60200190565b600082601f8301126200058c57600080fd5b81516020620005a56200059f8362000554565b62000521565b82815260059290921b84018101918181019086841115620005c557600080fd5b8286015b84811015620005e25780518352918301918301620005c9565b509695505050505050565b600080604083850312156200060157600080fd5b82516001600160401b03808211156200061957600080fd5b818501915085601f8301126200062e57600080fd5b81516020620006416200059f8362000554565b82815260059290921b840181019181810190898411156200066157600080fd5b948201945b83861015620006985785516001600160a01b0381168114620006885760008081fd5b8252948201949082019062000666565b91880151919650909350505080821115620006b257600080fd5b50620006c1858286016200057a565b9150509250929050565b600181811c90821680620006e057607f821691505b6020821081036200070157634e487b7160e01b600052602260045260246000fd5b50919050565b601f8211156200075557600081815260208120601f850160051c81016020861015620007305750805b601f850160051c820191505b8181101562000751578281556001016200073c565b5050505b505050565b81516001600160401b038111156200077657620007766200050b565b6200078e81620007878454620006cb565b8462000707565b602080601f831160018114620007c65760008415620007ad5750858301515b600019600386901b1c1916600185901b17855562000751565b600085815260208120601f198616915b82811015620007f757888601518255948401946001909101908401620007d6565b5085821015620008165787850151600019600388901b60f8161c191681555b5050505050600190811b01905550565b634e487b7160e01b600052603260045260246000fd5b634e487b7160e01b600052601160045260246000fd5b6000600182016200086757620008676200083c565b5060010190565b808201808211156200088457620008846200083c565b92915050565b60805160a051613ed0620008bb60003960008181612bdd01528181612c070152613115015260005050613ed06000f3fe6080604052600436106103855760003560e01c806383a974a2116101d1578063bdce5d2311610102578063d7224ba0116100a0578063e985e9c51161006f578063e985e9c514610a33578063f1cf066514610a7c578063f2fde38b14610aa3578063f8dcbddb14610ac357600080fd5b8063d7224ba0146109a5578063d79779b2146109bb578063dd599c28146109f1578063e33b7de314610a1e57600080fd5b8063c87b56dd116100dc578063c87b56dd1461092f578063cbce4c971461094f578063ce7c2ac21461096f578063d200d3ba1461051757600080fd5b8063bdce5d23146108ef578063c45ac0501461090f578063c50b316a1461044c57600080fd5b8063a0712d681161016f578063a3db1b8311610149578063a3db1b83146104cd578063a3f8eace14610882578063b3f1149c146108a2578063b88d4fde146108cf57600080fd5b8063a0712d681461083a578063a22cb4651461084d578063a294a47e1461086d57600080fd5b80638da5cb5b116101ab5780638da5cb5b146107be57806395d89b41146107dc5780639852595c146107f15780639c87bd191461082757600080fd5b806383a974a21461077c57806388efcd5d1461044c5780638b83209b1461079e57600080fd5b806323b872dd116102b657806342842e0e116102545780636352211e116102235780636352211e1461070757806370a0823114610727578063715018a614610747578063771177291461075c57600080fd5b806342842e0e14610687578063470ce443146106a757806348b75044146106c75780634f6ccce7146106e757600080fd5b806332cb6b0c1161029057806332cb6b0c146106015780633a98ef39146106175780633ccfd60b1461062c578063406072a91461064157600080fd5b806323b872dd146105a15780632f745c59146105c15780632fbba115146105e157600080fd5b8063095ea7b31161032357806319165587116102fd578063191655871461052c5780631c16521c1461054c5780631cf7045514610579578063224e35351461058e57600080fd5b8063095ea7b3146104e257806318160ddd1461050257806318adcd271461051757600080fd5b806307e89ec01161035f57806307e89ec01461044c578063081812fc14610475578063081a69fb146104ad57806308ebb432146104cd57600080fd5b806301ffc9a7146103d35780630675b7c61461040857806306fdde031461042a57600080fd5b366103ce577f6ef95f06320e7a25a04a175ca677b7052bdd97131872c2192525a629f51be77033604080516001600160a01b0390921682523460208301520160405180910390a1005b600080fd5b3480156103df57600080fd5b506103f36103ee366004613641565b610ae3565b60405190151581526020015b60405180910390f35b34801561041457600080fd5b506104286104233660046136fd565b610bb4565b005b34801561043657600080fd5b5061043f610bcc565b6040516103ff9190613796565b34801561045857600080fd5b5061046766b1a2bc2ec5000081565b6040519081526020016103ff565b34801561048157600080fd5b506104956104903660046137a9565b610c5e565b6040516001600160a01b0390911681526020016103ff565b3480156104b957600080fd5b506104286104c83660046137a9565b610cfe565b3480156104d957600080fd5b50610467601481565b3480156104ee57600080fd5b506104286104fd3660046137d7565b610d0b565b34801561050e57600080fd5b50600054610467565b34801561052357600080fd5b50610467600181565b34801561053857600080fd5b50610428610547366004613803565b610e3d565b34801561055857600080fd5b50610467610567366004613803565b60156020526000908152604090205481565b34801561058557600080fd5b50601354610467565b61042861059c366004613895565b610fb9565b3480156105ad57600080fd5b506104286105bc3660046138da565b611312565b3480156105cd57600080fd5b506104676105dc3660046137d7565b61131d565b3480156105ed57600080fd5b506104286105fc3660046137a9565b6114b3565b34801561060d57600080fd5b5061046761019481565b34801561062357600080fd5b50600954610467565b34801561063857600080fd5b5061042861155a565b34801561064d57600080fd5b5061046761065c36600461391b565b6001600160a01b039182166000908152600f6020908152604080832093909416825291909152205490565b34801561069357600080fd5b506104286106a23660046138da565b61158d565b3480156106b357600080fd5b506103f36106c2366004613954565b6115a8565b3480156106d357600080fd5b506104286106e236600461391b565b6115f7565b3480156106f357600080fd5b506104676107023660046137a9565b61179d565b34801561071357600080fd5b506104956107223660046137a9565b611819565b34801561073357600080fd5b50610467610742366004613803565b61182b565b34801561075357600080fd5b506104286118ce565b34801561076857600080fd5b506104286107773660046137a9565b6118e2565b34801561078857600080fd5b506107916118ef565b6040516103ff91906139a4565b3480156107aa57600080fd5b506104956107b93660046137a9565b611992565b3480156107ca57600080fd5b506008546001600160a01b0316610495565b3480156107e857600080fd5b5061043f6119c2565b3480156107fd57600080fd5b5061046761080c366004613803565b6001600160a01b03166000908152600c602052604090205490565b610428610835366004613895565b6119d1565b6104286108483660046137a9565b611d10565b34801561085957600080fd5b506104286108683660046139f6565b61201d565b34801561087957600080fd5b50601454610467565b34801561088e57600080fd5b5061046761089d366004613803565b6120e1565b3480156108ae57600080fd5b506104676108bd366004613803565b60166020526000908152604090205481565b3480156108db57600080fd5b506104286108ea366004613a24565b612122565b3480156108fb57600080fd5b506103f361090a366004613954565b6121b1565b34801561091b57600080fd5b5061046761092a36600461391b565b6121e2565b34801561093b57600080fd5b5061043f61094a3660046137a9565b6122c6565b34801561095b57600080fd5b5061042861096a3660046137d7565b6123a1565b34801561097b57600080fd5b5061046761098a366004613803565b6001600160a01b03166000908152600b602052604090205490565b3480156109b157600080fd5b5061046760075481565b3480156109c757600080fd5b506104676109d6366004613803565b6001600160a01b03166000908152600e602052604090205490565b3480156109fd57600080fd5b50610467610a0c366004613803565b60176020526000908152604090205481565b348015610a2a57600080fd5b50600a54610467565b348015610a3f57600080fd5b506103f3610a4e36600461391b565b6001600160a01b03918216600090815260066020908152604080832093909416825291909152205460ff1690565b348015610a8857600080fd5b50601254610a969060ff1681565b6040516103ff9190613aba565b348015610aaf57600080fd5b50610428610abe366004613803565b61242f565b348015610acf57600080fd5b50610428610ade3660046137a9565b6124bc565b60006001600160e01b031982167f80ac58cd000000000000000000000000000000000000000000000000000000001480610b4657506001600160e01b031982167f5b5e139f00000000000000000000000000000000000000000000000000000000145b80610b7a57506001600160e01b031982167f780e9d6300000000000000000000000000000000000000000000000000000000145b80610bae57507f01ffc9a7000000000000000000000000000000000000000000000000000000006001600160e01b03198316145b92915050565b610bbc6124fa565b6011610bc88282613b62565b5050565b606060018054610bdb90613ae2565b80601f0160208091040260200160405190810160405280929190818152602001828054610c0790613ae2565b8015610c545780601f10610c2957610100808354040283529160200191610c54565b820191906000526020600020905b815481529060010190602001808311610c3757829003601f168201915b5050505050905090565b6000610c6b826000541190565b610ce25760405162461bcd60e51b815260206004820152602d60248201527f455243373231413a20617070726f76656420717565727920666f72206e6f6e6560448201527f78697374656e7420746f6b656e0000000000000000000000000000000000000060648201526084015b60405180910390fd5b506000908152600560205260409020546001600160a01b031690565b610d066124fa565b601355565b6000610d1682611819565b9050806001600160a01b0316836001600160a01b031603610d9f5760405162461bcd60e51b815260206004820152602260248201527f455243373231413a20617070726f76616c20746f2063757272656e74206f776e60448201527f65720000000000000000000000000000000000000000000000000000000000006064820152608401610cd9565b336001600160a01b0382161480610dbb5750610dbb8133610a4e565b610e2d5760405162461bcd60e51b815260206004820152603960248201527f455243373231413a20617070726f76652063616c6c6572206973206e6f74206f60448201527f776e6572206e6f7220617070726f76656420666f7220616c6c000000000000006064820152608401610cd9565b610e38838383612554565b505050565b6001600160a01b0381166000908152600b6020526040902054610eb15760405162461bcd60e51b815260206004820152602660248201527f5061796d656e7453706c69747465723a206163636f756e7420686173206e6f2060448201526573686172657360d01b6064820152608401610cd9565b6000610ebc826120e1565b905080600003610f225760405162461bcd60e51b815260206004820152602b60248201527f5061796d656e7453706c69747465723a206163636f756e74206973206e6f742060448201526a191d59481c185e5b595b9d60aa1b6064820152608401610cd9565b6001600160a01b0382166000908152600c602052604081208054839290610f4a908490613c38565b9250508190555080600a6000828254610f639190613c38565b90915550610f73905082826125bd565b604080516001600160a01b0384168152602081018390527fdf20fd1e76bc69d672e4814fafb2c449bba3a5369d8359adf9e05e6fde87b056910160405180910390a15050565b60026010540361100b5760405162461bcd60e51b815260206004820152601f60248201527f5265656e7472616e637947756172643a207265656e7472616e742063616c6c006044820152606401610cd9565b60026010553233146110775760405162461bcd60e51b815260206004820152602f60248201527f4d6574614d696e6447616d6573203a3a2043616e6e6f742062652063616c6c6560448201526e1908189e48184818dbdb9d1c9858dd608a1b6064820152608401610cd9565b600260125460ff16600481111561109057611090613aa4565b146110eb5760405162461bcd60e51b815260206004820152602560248201527f4d6574614d696e6447616d6573203a3a2047656e324d696e74206973206e6f746044820152641037b832b760d91b6064820152608401610cd9565b610194816110f860005490565b6111029190613c38565b11156111675760405162461bcd60e51b815260206004820152602e60248201527f4d6574614d696e6447616d6573203a3a2043616e6e6f74206d696e742062657960448201526d6f6e64206d617820737570706c7960901b6064820152608401610cd9565b33600090815260176020526040902054600190611185908390613c38565b11156111f95760405162461bcd60e51b815260206004820152603760248201527f4d6574614d696e6447616d6573203a3a2043616e6e6f74206d696e742062657960448201527f6f6e642077686974656c697374206d6178206d696e74210000000000000000006064820152608401610cd9565b61120a8166b1a2bc2ec50000613c4b565b34101561126d5760405162461bcd60e51b815260206004820152602b60248201527f4d6574614d696e6447616d6573203a3a205061796d656e742069732062656c6f60448201526a772074686520707269636560a81b6064820152608401610cd9565b600061127933846115a8565b9050806112d95760405162461bcd60e51b815260206004820152602860248201527f4d6574614d696e6447616d6573203a3a20596f7520617265206e6f74207768696044820152671d195b1a5cdd195960c21b6064820152608401610cd9565b33600090815260176020526040812080548492906112f8908490613c38565b90915550611308905033836126d6565b5050600160105550565b610e388383836126f0565b60006113288361182b565b821061139c5760405162461bcd60e51b815260206004820152602260248201527f455243373231413a206f776e657220696e646578206f7574206f6620626f756e60448201527f64730000000000000000000000000000000000000000000000000000000000006064820152608401610cd9565b600080549080805b83811015611444576000818152600360209081526040918290208251808401909352546001600160a01b038116808452600160a01b90910467ffffffffffffffff1691830191909152156113f757805192505b876001600160a01b0316836001600160a01b0316036114315786840361142357509350610bae92505050565b8361142d81613c62565b9450505b508061143c81613c62565b9150506113a4565b5060405162461bcd60e51b815260206004820152602e60248201527f455243373231413a20756e61626c6520746f2067657420746f6b656e206f662060448201527f6f776e657220627920696e6465780000000000000000000000000000000000006064820152608401610cd9565b6114bb6124fa565b336000908152601560205260409020546014906114d9908390613c38565b111561154d5760405162461bcd60e51b815260206004820152602560248201527f4d6574614d696e6447616d6573203a3a205465616d20616c7265616479206d6960448201527f6e746564210000000000000000000000000000000000000000000000000000006064820152608401610cd9565b61155733826126d6565b50565b6115626124fa565b60005b6018548110156115575761157b61054782611992565b8061158581613c62565b915050611565565b610e3883838360405180602001604052806000815250612122565b6014546040516bffffffffffffffffffffffff19606085901b1660208201526000916115f0918491906034015b60405160208183030381529060405280519060200120612ab2565b9392505050565b6001600160a01b0381166000908152600b602052604090205461166b5760405162461bcd60e51b815260206004820152602660248201527f5061796d656e7453706c69747465723a206163636f756e7420686173206e6f2060448201526573686172657360d01b6064820152608401610cd9565b600061167783836121e2565b9050806000036116dd5760405162461bcd60e51b815260206004820152602b60248201527f5061796d656e7453706c69747465723a206163636f756e74206973206e6f742060448201526a191d59481c185e5b595b9d60aa1b6064820152608401610cd9565b6001600160a01b038084166000908152600f6020908152604080832093861683529290529081208054839290611714908490613c38565b90915550506001600160a01b0383166000908152600e602052604081208054839290611741908490613c38565b909155506117529050838383612ac8565b604080516001600160a01b038481168252602082018490528516917f3be5b7a71e84ed12875d241991c70855ac5817d847039e17a9d895c1ceb0f18a910160405180910390a2505050565b6000805482106118155760405162461bcd60e51b815260206004820152602360248201527f455243373231413a20676c6f62616c20696e646578206f7574206f6620626f7560448201527f6e647300000000000000000000000000000000000000000000000000000000006064820152608401610cd9565b5090565b600061182482612b48565b5192915050565b60006001600160a01b0382166118a95760405162461bcd60e51b815260206004820152602b60248201527f455243373231413a2062616c616e636520717565727920666f7220746865207a60448201527f65726f20616464726573730000000000000000000000000000000000000000006064820152608401610cd9565b506001600160a01b03166000908152600460205260409020546001600160801b031690565b6118d66124fa565b6118e06000612d13565b565b6118ea6124fa565b601455565b60603360006118fd8261182b565b905060008167ffffffffffffffff81111561191a5761191a61365e565b604051908082528060200260200182016040528015611943578160200160208202803683370190505b50905060005b8281101561198a5761195b848261131d565b82828151811061196d5761196d613c7b565b60209081029190910101528061198281613c62565b915050611949565b509392505050565b6000600d82815481106119a7576119a7613c7b565b6000918252602090912001546001600160a01b031692915050565b606060028054610bdb90613ae2565b600260105403611a235760405162461bcd60e51b815260206004820152601f60248201527f5265656e7472616e637947756172643a207265656e7472616e742063616c6c006044820152606401610cd9565b6002601055323314611a8f5760405162461bcd60e51b815260206004820152602f60248201527f4d6574614d696e6447616d6573203a3a2043616e6e6f742062652063616c6c6560448201526e1908189e48184818dbdb9d1c9858dd608a1b6064820152608401610cd9565b600160125460ff166004811115611aa857611aa8613aa4565b14611b035760405162461bcd60e51b815260206004820152602560248201527f4d6574614d696e6447616d6573203a3a2047656e314d696e74206973206e6f746044820152641037b832b760d91b6064820152608401610cd9565b61019481611b1060005490565b611b1a9190613c38565b1115611b7f5760405162461bcd60e51b815260206004820152602e60248201527f4d6574614d696e6447616d6573203a3a2043616e6e6f74206d696e742062657960448201526d6f6e64206d617820737570706c7960901b6064820152608401610cd9565b33600090815260166020526040902054600190611b9d908390613c38565b1115611c115760405162461bcd60e51b815260206004820152603760248201527f4d6574614d696e6447616d6573203a3a2043616e6e6f74206d696e742062657960448201527f6f6e642077686974656c697374206d6178206d696e74210000000000000000006064820152608401610cd9565b611c228166b1a2bc2ec50000613c4b565b341015611c855760405162461bcd60e51b815260206004820152602b60248201527f4d6574614d696e6447616d6573203a3a205061796d656e742069732062656c6f60448201526a772074686520707269636560a81b6064820152608401610cd9565b6000611c9133846121b1565b905080611cf15760405162461bcd60e51b815260206004820152602860248201527f4d6574614d696e6447616d6573203a3a20596f7520617265206e6f74207768696044820152671d195b1a5cdd195960c21b6064820152608401610cd9565b33600090815260166020526040812080548492906112f8908490613c38565b600260105403611d625760405162461bcd60e51b815260206004820152601f60248201527f5265656e7472616e637947756172643a207265656e7472616e742063616c6c006044820152606401610cd9565b6002601055323314611dce5760405162461bcd60e51b815260206004820152602f60248201527f4d6574614d696e6447616d6573203a3a2043616e6e6f742062652063616c6c6560448201526e1908189e48184818dbdb9d1c9858dd608a1b6064820152608401610cd9565b600360125460ff166004811115611de757611de7613aa4565b1480611e095750600460125460ff166004811115611e0757611e07613aa4565b145b611e555760405162461bcd60e51b815260206004820181905260248201527f4d6574614d696e6447616d6573203a3a204e6f7420596574204163746976652e6044820152606401610cd9565b61019481611e6260005490565b611e6c9190613c38565b1115611ee05760405162461bcd60e51b815260206004820152602260248201527f4d6574614d696e6447616d6573203a3a204265796f6e64204d6178205375707060448201527f6c790000000000000000000000000000000000000000000000000000000000006064820152608401610cd9565b33600090815260156020526040902054601490611efe908390613c38565b1115611f725760405162461bcd60e51b815260206004820152602860248201527f4d6574614d696e6447616d6573203a3a20416c7265616479206d696e7465642060448201527f332074696d6573210000000000000000000000000000000000000000000000006064820152608401610cd9565b611f838166b1a2bc2ec50000613c4b565b341015611fe65760405162461bcd60e51b815260206004820152602b60248201527f4d6574614d696e6447616d6573203a3a205061796d656e742069732062656c6f60448201526a772074686520707269636560a81b6064820152608401610cd9565b3360009081526015602052604081208054839290612005908490613c38565b90915550612015905033826126d6565b506001601055565b336001600160a01b038316036120755760405162461bcd60e51b815260206004820152601a60248201527f455243373231413a20617070726f766520746f2063616c6c65720000000000006044820152606401610cd9565b3360008181526006602090815260408083206001600160a01b03871680855290835292819020805460ff191686151590811790915590519081529192917f17307eab39ab6107e8899845ad3d59bd9653f200f220920489ca2b5937696c31910160405180910390a35050565b6000806120ed600a5490565b6120f79047613c38565b90506115f0838261211d866001600160a01b03166000908152600c602052604090205490565b612d72565b61212d8484846126f0565b61213984848484612db0565b6121ab5760405162461bcd60e51b815260206004820152603360248201527f455243373231413a207472616e7366657220746f206e6f6e204552433732315260448201527f6563656976657220696d706c656d656e746572000000000000000000000000006064820152608401610cd9565b50505050565b6013546040516bffffffffffffffffffffffff19606085901b1660208201526000916115f0918491906034016115d5565b6001600160a01b0382166000908152600e602052604081205481906040517f70a082310000000000000000000000000000000000000000000000000000000081523060048201526001600160a01b038616906370a0823190602401602060405180830381865afa15801561225a573d6000803e3d6000fd5b505050506040513d601f19601f8201168201806040525081019061227e9190613c91565b6122889190613c38565b6001600160a01b038086166000908152600f60209081526040808320938816835292905220549091506122be9084908390612d72565b949350505050565b60606122d3826000541190565b6123455760405162461bcd60e51b815260206004820152602f60248201527f4552433732314d657461646174613a2055524920717565727920666f72206e6f60448201527f6e6578697374656e7420746f6b656e00000000000000000000000000000000006064820152608401610cd9565b60006011805461235490613ae2565b9050116123705760405180602001604052806000815250610bae565b601161237b83612f07565b60405160200161238c929190613caa565b60405160208183030381529060405292915050565b6123a96124fa565b610194816123b660005490565b6123c09190613c38565b11156124255760405162461bcd60e51b815260206004820152602e60248201527f4d6574614d696e6447616d6573203a3a2043616e6e6f74206d696e742062657960448201526d6f6e64206d617820737570706c7960901b6064820152608401610cd9565b610bc882826126d6565b6124376124fa565b6001600160a01b0381166124b35760405162461bcd60e51b815260206004820152602660248201527f4f776e61626c653a206e6577206f776e657220697320746865207a65726f206160448201527f64647265737300000000000000000000000000000000000000000000000000006064820152608401610cd9565b61155781612d13565b6124c46124fa565b8060048111156124d6576124d6613aa4565b6012805460ff191660018360048111156124f2576124f2613aa4565b021790555050565b6008546001600160a01b031633146118e05760405162461bcd60e51b815260206004820181905260248201527f4f776e61626c653a2063616c6c6572206973206e6f7420746865206f776e65726044820152606401610cd9565b600082815260056020526040808220805473ffffffffffffffffffffffffffffffffffffffff19166001600160a01b0387811691821790925591518593918516917f8c5be1e5ebec7d5bd14f71427d1e84f3dd0314c0f7b2291e5b200ac8c7c3b92591a4505050565b8047101561260d5760405162461bcd60e51b815260206004820152601d60248201527f416464726573733a20696e73756666696369656e742062616c616e63650000006044820152606401610cd9565b6000826001600160a01b03168260405160006040518083038185875af1925050503d806000811461265a576040519150601f19603f3d011682016040523d82523d6000602084013e61265f565b606091505b5050905080610e385760405162461bcd60e51b815260206004820152603a60248201527f416464726573733a20756e61626c6520746f2073656e642076616c75652c207260448201527f6563697069656e74206d617920686176652072657665727465640000000000006064820152608401610cd9565b610bc882826040518060200160405280600081525061303c565b60006126fb82612b48565b80519091506000906001600160a01b0316336001600160a01b0316148061273257503361272784610c5e565b6001600160a01b0316145b80612744575081516127449033610a4e565b9050806127b95760405162461bcd60e51b815260206004820152603260248201527f455243373231413a207472616e736665722063616c6c6572206973206e6f742060448201527f6f776e6572206e6f7220617070726f76656400000000000000000000000000006064820152608401610cd9565b846001600160a01b031682600001516001600160a01b0316146128445760405162461bcd60e51b815260206004820152602660248201527f455243373231413a207472616e736665722066726f6d20696e636f727265637460448201527f206f776e657200000000000000000000000000000000000000000000000000006064820152608401610cd9565b6001600160a01b0384166128c05760405162461bcd60e51b815260206004820152602560248201527f455243373231413a207472616e7366657220746f20746865207a65726f20616460448201527f64726573730000000000000000000000000000000000000000000000000000006064820152608401610cd9565b6128d06000848460000151612554565b6001600160a01b03851660009081526004602052604081208054600192906129029084906001600160801b0316613d59565b82546101009290920a6001600160801b038181021990931691831602179091556001600160a01b0386166000908152600460205260408120805460019450909261294e91859116613d80565b82546001600160801b039182166101009390930a9283029190920219909116179055506040805180820182526001600160a01b03808716825267ffffffffffffffff428116602080850191825260008981526003909152948520935184549151909216600160a01b026001600160e01b031990911691909216171790556129d6846001613c38565b6000818152600360205260409020549091506001600160a01b0316612a6857612a00816000541190565b15612a685760408051808201825284516001600160a01b03908116825260208087015167ffffffffffffffff9081168285019081526000878152600390935294909120925183549451909116600160a01b026001600160e01b03199094169116179190911790555b83856001600160a01b0316876001600160a01b03167fddf252ad1be2c89b69c2b068fc378daa952ba7f163c4a11628f55a4df523b3ef60405160405180910390a45b505050505050565b600082612abf85846133be565b14949350505050565b604080516001600160a01b038416602482015260448082018490528251808303909101815260649091019091526020810180517bffffffffffffffffffffffffffffffffffffffffffffffffffffffff167fa9059cbb00000000000000000000000000000000000000000000000000000000179052610e38908490613403565b6040805180820190915260008082526020820152612b67826000541190565b612bd95760405162461bcd60e51b815260206004820152602a60248201527f455243373231413a206f776e657220717565727920666f72206e6f6e6578697360448201527f74656e7420746f6b656e000000000000000000000000000000000000000000006064820152608401610cd9565b60007f00000000000000000000000000000000000000000000000000000000000000008310612c3a57612c2c7f000000000000000000000000000000000000000000000000000000000000000084613da0565b612c37906001613c38565b90505b825b818110612ca4576000818152600360209081526040918290208251808401909352546001600160a01b038116808452600160a01b90910467ffffffffffffffff169183019190915215612c9157949350505050565b5080612c9c81613db3565b915050612c3c565b5060405162461bcd60e51b815260206004820152602f60248201527f455243373231413a20756e61626c6520746f2064657465726d696e652074686560448201527f206f776e6572206f6620746f6b656e00000000000000000000000000000000006064820152608401610cd9565b600880546001600160a01b0383811673ffffffffffffffffffffffffffffffffffffffff19831681179093556040519116919082907f8be0079c531659141344cd1fd0a4f28419497f9722a3daafe3b4186f6b6457e090600090a35050565b6009546001600160a01b0384166000908152600b602052604081205490918391612d9c9086613c4b565b612da69190613de0565b6122be9190613da0565b60006001600160a01b0384163b15612efc57604051630a85bd0160e11b81526001600160a01b0385169063150b7a0290612df4903390899088908890600401613df4565b6020604051808303816000875af1925050508015612e2f575060408051601f3d908101601f19168201909252612e2c91810190613e30565b60015b612ee2573d808015612e5d576040519150601f19603f3d011682016040523d82523d6000602084013e612e62565b606091505b508051600003612eda5760405162461bcd60e51b815260206004820152603360248201527f455243373231413a207472616e7366657220746f206e6f6e204552433732315260448201527f6563656976657220696d706c656d656e746572000000000000000000000000006064820152608401610cd9565b805181602001fd5b6001600160e01b031916630a85bd0160e11b1490506122be565b506001949350505050565b606081600003612f4a57505060408051808201909152600181527f3000000000000000000000000000000000000000000000000000000000000000602082015290565b8160005b8115612f745780612f5e81613c62565b9150612f6d9050600a83613de0565b9150612f4e565b60008167ffffffffffffffff811115612f8f57612f8f61365e565b6040519080825280601f01601f191660200182016040528015612fb9576020820181803683370190505b5090505b84156122be57612fce600183613da0565b9150612fdb600a86613e4d565b612fe6906030613c38565b60f81b818381518110612ffb57612ffb613c7b565b60200101907effffffffffffffffffffffffffffffffffffffffffffffffffffffffffffff1916908160001a905350613035600a86613de0565b9450612fbd565b6000546001600160a01b0384166130bb5760405162461bcd60e51b815260206004820152602160248201527f455243373231413a206d696e7420746f20746865207a65726f2061646472657360448201527f73000000000000000000000000000000000000000000000000000000000000006064820152608401610cd9565b6130c6816000541190565b156131135760405162461bcd60e51b815260206004820152601d60248201527f455243373231413a20746f6b656e20616c7265616479206d696e7465640000006044820152606401610cd9565b7f00000000000000000000000000000000000000000000000000000000000000008311156131a95760405162461bcd60e51b815260206004820152602260248201527f455243373231413a207175616e7469747920746f206d696e7420746f6f20686960448201527f67680000000000000000000000000000000000000000000000000000000000006064820152608401610cd9565b6001600160a01b0384166000908152600460209081526040918290208251808401845290546001600160801b0380821683527001000000000000000000000000000000009091041691810191909152815180830190925280519091908190613212908790613d80565b6001600160801b031681526020018583602001516132309190613d80565b6001600160801b039081169091526001600160a01b03808816600081815260046020908152604080832087519783015187167001000000000000000000000000000000000297909616969096179094558451808601865291825267ffffffffffffffff4281168386019081528883526003909552948120915182549451909516600160a01b026001600160e01b031990941694909216939093179190911790915582905b858110156133b35760405182906001600160a01b038916906000907fddf252ad1be2c89b69c2b068fc378daa952ba7f163c4a11628f55a4df523b3ef908290a46133216000888488612db0565b6133935760405162461bcd60e51b815260206004820152603360248201527f455243373231413a207472616e7366657220746f206e6f6e204552433732315260448201527f6563656976657220696d706c656d656e746572000000000000000000000000006064820152608401610cd9565b8161339d81613c62565b92505080806133ab90613c62565b9150506132d4565b506000819055612aaa565b600081815b845181101561198a576133ef828683815181106133e2576133e2613c7b565b60200260200101516134e8565b9150806133fb81613c62565b9150506133c3565b6000613458826040518060400160405280602081526020017f5361666545524332303a206c6f772d6c6576656c2063616c6c206661696c6564815250856001600160a01b03166135179092919063ffffffff16565b805190915015610e3857808060200190518101906134769190613e61565b610e385760405162461bcd60e51b815260206004820152602a60248201527f5361666545524332303a204552433230206f7065726174696f6e20646964206e60448201527f6f742073756363656564000000000000000000000000000000000000000000006064820152608401610cd9565b60008183106135045760008281526020849052604090206115f0565b60008381526020839052604090206115f0565b60606122be8484600085856001600160a01b0385163b6135795760405162461bcd60e51b815260206004820152601d60248201527f416464726573733a2063616c6c20746f206e6f6e2d636f6e74726163740000006044820152606401610cd9565b600080866001600160a01b031685876040516135959190613e7e565b60006040518083038185875af1925050503d80600081146135d2576040519150601f19603f3d011682016040523d82523d6000602084013e6135d7565b606091505b50915091506135e78282866135f2565b979650505050505050565b606083156136015750816115f0565b8251156136115782518084602001fd5b8160405162461bcd60e51b8152600401610cd99190613796565b6001600160e01b03198116811461155757600080fd5b60006020828403121561365357600080fd5b81356115f08161362b565b634e487b7160e01b600052604160045260246000fd5b604051601f8201601f1916810167ffffffffffffffff8111828210171561369d5761369d61365e565b604052919050565b600067ffffffffffffffff8311156136bf576136bf61365e565b6136d2601f8401601f1916602001613674565b90508281528383830111156136e657600080fd5b828260208301376000602084830101529392505050565b60006020828403121561370f57600080fd5b813567ffffffffffffffff81111561372657600080fd5b8201601f8101841361373757600080fd5b6122be848235602084016136a5565b60005b83811015613761578181015183820152602001613749565b50506000910152565b60008151808452613782816020860160208601613746565b601f01601f19169290920160200192915050565b6020815260006115f0602083018461376a565b6000602082840312156137bb57600080fd5b5035919050565b6001600160a01b038116811461155757600080fd5b600080604083850312156137ea57600080fd5b82356137f5816137c2565b946020939093013593505050565b60006020828403121561381557600080fd5b81356115f0816137c2565b600082601f83011261383157600080fd5b8135602067ffffffffffffffff82111561384d5761384d61365e565b8160051b61385c828201613674565b928352848101820192828101908785111561387657600080fd5b83870192505b848310156135e75782358252918301919083019061387c565b600080604083850312156138a857600080fd5b823567ffffffffffffffff8111156138bf57600080fd5b6138cb85828601613820565b95602094909401359450505050565b6000806000606084860312156138ef57600080fd5b83356138fa816137c2565b9250602084013561390a816137c2565b929592945050506040919091013590565b6000806040838503121561392e57600080fd5b8235613939816137c2565b91506020830135613949816137c2565b809150509250929050565b6000806040838503121561396757600080fd5b8235613972816137c2565b9150602083013567ffffffffffffffff81111561398e57600080fd5b61399a85828601613820565b9150509250929050565b6020808252825182820181905260009190848201906040850190845b818110156139dc578351835292840192918401916001016139c0565b50909695505050505050565b801515811461155757600080fd5b60008060408385031215613a0957600080fd5b8235613a14816137c2565b91506020830135613949816139e8565b60008060008060808587031215613a3a57600080fd5b8435613a45816137c2565b93506020850135613a55816137c2565b925060408501359150606085013567ffffffffffffffff811115613a7857600080fd5b8501601f81018713613a8957600080fd5b613a98878235602084016136a5565b91505092959194509250565b634e487b7160e01b600052602160045260246000fd5b6020810160058310613adc57634e487b7160e01b600052602160045260246000fd5b91905290565b600181811c90821680613af657607f821691505b602082108103613b1657634e487b7160e01b600052602260045260246000fd5b50919050565b601f821115610e3857600081815260208120601f850160051c81016020861015613b435750805b601f850160051c820191505b81811015612aaa57828155600101613b4f565b815167ffffffffffffffff811115613b7c57613b7c61365e565b613b9081613b8a8454613ae2565b84613b1c565b602080601f831160018114613bc55760008415613bad5750858301515b600019600386901b1c1916600185901b178555612aaa565b600085815260208120601f198616915b82811015613bf457888601518255948401946001909101908401613bd5565b5085821015613c125787850151600019600388901b60f8161c191681555b5050505050600190811b01905550565b634e487b7160e01b600052601160045260246000fd5b80820180821115610bae57610bae613c22565b8082028115828204841417610bae57610bae613c22565b600060018201613c7457613c74613c22565b5060010190565b634e487b7160e01b600052603260045260246000fd5b600060208284031215613ca357600080fd5b5051919050565b6000808454613cb881613ae2565b60018281168015613cd05760018114613ce557613d14565b60ff1984168752821515830287019450613d14565b8860005260208060002060005b85811015613d0b5781548a820152908401908201613cf2565b50505082870194505b505050508351613d28818360208801613746565b7f2e6a736f6e0000000000000000000000000000000000000000000000000000009101908152600501949350505050565b6001600160801b03828116828216039080821115613d7957613d79613c22565b5092915050565b6001600160801b03818116838216019080821115613d7957613d79613c22565b81810381811115610bae57610bae613c22565b600081613dc257613dc2613c22565b506000190190565b634e487b7160e01b600052601260045260246000fd5b600082613def57613def613dca565b500490565b60006001600160a01b03808716835280861660208401525083604083015260806060830152613e26608083018461376a565b9695505050505050565b600060208284031215613e4257600080fd5b81516115f08161362b565b600082613e5c57613e5c613dca565b500690565b600060208284031215613e7357600080fd5b81516115f0816139e8565b60008251613e90818460208701613746565b919091019291505056fea2646970667358221220f5c81c1ec328b4200b69e2754db361af462a23413fd1fbf651f21811e3bdff4064736f6c63430008110033",
  "linkReferences": {},
  "deployedLinkReferences": {}
}